{
  "contractName": "LendingPoolTest",
  "abi": [
    {
      "inputs": [],
      "name": "pool",
      "outputs": [
        {
          "internalType": "address",
          "name": "",
          "type": "address"
        }
      ],
      "stateMutability": "view",
      "type": "function",
      "constant": true
    },
    {
      "inputs": [
        {
          "internalType": "uint256",
          "name": "amount",
          "type": "uint256"
        }
      ],
      "name": "depositFunds",
      "outputs": [],
      "stateMutability": "nonpayable",
      "type": "function"
    }
  ],
  "bytecode": "0x6080604052600080546001600160a01b031990811673e0fba4fc209b4948668006b2be61711b7f465bae17918290556001805482166001600160a01b0393909316929092179091556002805490911673ff795577d9ac8bd7d90ee22b6c1703490b6512fd17905534801561007257600080fd5b50610141806100826000396000f3fe608060405234801561001057600080fd5b50600436106100365760003560e01c806316f0115b1461003b5780633b76594d1461005f575b600080fd5b61004361007e565b604080516001600160a01b039092168252519081900360200190f35b61007c6004803603602081101561007557600080fd5b503561008d565b005b6000546001600160a01b031681565b6001546002546040805163e8eda9df60e01b81526001600160a01b039283166004820152602481018590523060448201526000606482018190529151929093169263e8eda9df926084808301939282900301818387803b1580156100f057600080fd5b505af1158015610104573d6000803e3d6000fd5b505050505056fea264697066735822122044da70b03d48a8c41b35418dcacc3cd746605acc0083b6d2009735a62382a56e64736f6c634300060c0033",
  "immutableReferences": {},
  "source": "pragma solidity 0.6.12;\r\n\r\nimport \"@aave/protocol-v2/contracts/protocol/lendingpool/LendingPool.sol\";\r\n\r\n\r\ncontract LendingPoolTest {\r\n    address public pool = 0xE0fBa4Fc209b4948668006B2bE61711b7f465bAe; //The Aave Smart Contract Pool (currently set to DAI on Kovan)\r\n\r\n    LendingPool private stablecoinPool = LendingPool(pool); //the lending pool\r\n\r\n    address erc20Contract = 0xFf795577d9AC8bD7D90Ee22b6C1703490b6512FD; //the contract for the token/stablecoin\r\n\r\n\r\n    /**\r\n     * @dev - When funds are deposited through this function in the smart contract, \r\n        they will be sent to Aave and turn into yield-bearing\r\n        Note: Function will fail if approval (stablecoin.approve(pool, 79228162514260000000000000000)) not given first.\r\n     */\r\n    function depositFunds(uint256 amount) public {\r\n        stablecoinPool.deposit(erc20Contract, amount, address(this), 0);\r\n    }\r\n}",
  "sourcePath": "C:/Users/murrl/GithubRepos/PrescryptivePOC/AaveTest/contracts/LendingPoolTest.sol",
  "compiler": {
    "name": "solc",
    "version": "0.6.12+commit.27d51765.Emscripten.clang"
  },
  "schemaVersion": "3.4.1",
  "updatedAt": "2021-08-12T17:52:42.010Z",
  "networkType": "ethereum",
  "devdoc": {
    "kind": "dev",
    "methods": {
      "depositFunds(uint256)": {
        "details": "- When funds are deposited through this function in the smart contract,  they will be sent to Aave and turn into yield-bearing Note: Function will fail if approval (stablecoin.approve(pool, 79228162514260000000000000000)) not given first."
      }
    },
    "version": 1
  },
  "userdoc": {
    "kind": "user",
    "methods": {},
    "version": 1
  }
}