{
  "contractName": "PrescryptiveSmartContract",
  "abi": [
    {
      "inputs": [
        {
          "internalType": "address",
          "name": "_erc20",
          "type": "address"
        }
      ],
      "stateMutability": "nonpayable",
      "type": "constructor"
    },
    {
      "anonymous": false,
      "inputs": [
        {
          "indexed": true,
          "internalType": "bytes32",
          "name": "role",
          "type": "bytes32"
        },
        {
          "indexed": true,
          "internalType": "bytes32",
          "name": "previousAdminRole",
          "type": "bytes32"
        },
        {
          "indexed": true,
          "internalType": "bytes32",
          "name": "newAdminRole",
          "type": "bytes32"
        }
      ],
      "name": "RoleAdminChanged",
      "type": "event"
    },
    {
      "anonymous": false,
      "inputs": [
        {
          "indexed": true,
          "internalType": "bytes32",
          "name": "role",
          "type": "bytes32"
        },
        {
          "indexed": true,
          "internalType": "address",
          "name": "account",
          "type": "address"
        },
        {
          "indexed": true,
          "internalType": "address",
          "name": "sender",
          "type": "address"
        }
      ],
      "name": "RoleGranted",
      "type": "event"
    },
    {
      "anonymous": false,
      "inputs": [
        {
          "indexed": true,
          "internalType": "bytes32",
          "name": "role",
          "type": "bytes32"
        },
        {
          "indexed": true,
          "internalType": "address",
          "name": "account",
          "type": "address"
        },
        {
          "indexed": true,
          "internalType": "address",
          "name": "sender",
          "type": "address"
        }
      ],
      "name": "RoleRevoked",
      "type": "event"
    },
    {
      "inputs": [],
      "name": "CONFIRM_WITHDRAW_ROLE",
      "outputs": [
        {
          "internalType": "bytes32",
          "name": "",
          "type": "bytes32"
        }
      ],
      "stateMutability": "view",
      "type": "function",
      "constant": true
    },
    {
      "inputs": [],
      "name": "DEFAULT_ADMIN_ROLE",
      "outputs": [
        {
          "internalType": "bytes32",
          "name": "",
          "type": "bytes32"
        }
      ],
      "stateMutability": "view",
      "type": "function",
      "constant": true
    },
    {
      "inputs": [],
      "name": "WITHDRAW_ROLE",
      "outputs": [
        {
          "internalType": "bytes32",
          "name": "",
          "type": "bytes32"
        }
      ],
      "stateMutability": "view",
      "type": "function",
      "constant": true
    },
    {
      "inputs": [
        {
          "internalType": "bytes32",
          "name": "role",
          "type": "bytes32"
        }
      ],
      "name": "getRoleAdmin",
      "outputs": [
        {
          "internalType": "bytes32",
          "name": "",
          "type": "bytes32"
        }
      ],
      "stateMutability": "view",
      "type": "function",
      "constant": true
    },
    {
      "inputs": [
        {
          "internalType": "bytes32",
          "name": "role",
          "type": "bytes32"
        },
        {
          "internalType": "address",
          "name": "account",
          "type": "address"
        }
      ],
      "name": "grantRole",
      "outputs": [],
      "stateMutability": "nonpayable",
      "type": "function"
    },
    {
      "inputs": [
        {
          "internalType": "bytes32",
          "name": "role",
          "type": "bytes32"
        },
        {
          "internalType": "address",
          "name": "account",
          "type": "address"
        }
      ],
      "name": "hasRole",
      "outputs": [
        {
          "internalType": "bool",
          "name": "",
          "type": "bool"
        }
      ],
      "stateMutability": "view",
      "type": "function",
      "constant": true
    },
    {
      "inputs": [],
      "name": "owner",
      "outputs": [
        {
          "internalType": "address",
          "name": "",
          "type": "address"
        }
      ],
      "stateMutability": "view",
      "type": "function",
      "constant": true
    },
    {
      "inputs": [],
      "name": "pool",
      "outputs": [
        {
          "internalType": "address",
          "name": "",
          "type": "address"
        }
      ],
      "stateMutability": "view",
      "type": "function",
      "constant": true
    },
    {
      "inputs": [
        {
          "internalType": "bytes32",
          "name": "role",
          "type": "bytes32"
        },
        {
          "internalType": "address",
          "name": "account",
          "type": "address"
        }
      ],
      "name": "renounceRole",
      "outputs": [],
      "stateMutability": "nonpayable",
      "type": "function"
    },
    {
      "inputs": [
        {
          "internalType": "bytes32",
          "name": "role",
          "type": "bytes32"
        },
        {
          "internalType": "address",
          "name": "account",
          "type": "address"
        }
      ],
      "name": "revokeRole",
      "outputs": [],
      "stateMutability": "nonpayable",
      "type": "function"
    },
    {
      "inputs": [],
      "name": "stablecoin",
      "outputs": [
        {
          "internalType": "contract ERC20",
          "name": "",
          "type": "address"
        }
      ],
      "stateMutability": "view",
      "type": "function",
      "constant": true
    },
    {
      "inputs": [
        {
          "internalType": "bytes4",
          "name": "interfaceId",
          "type": "bytes4"
        }
      ],
      "name": "supportsInterface",
      "outputs": [
        {
          "internalType": "bool",
          "name": "",
          "type": "bool"
        }
      ],
      "stateMutability": "view",
      "type": "function",
      "constant": true
    },
    {
      "inputs": [],
      "name": "withdrawAddress",
      "outputs": [
        {
          "internalType": "address",
          "name": "",
          "type": "address"
        }
      ],
      "stateMutability": "view",
      "type": "function",
      "constant": true
    },
    {
      "inputs": [],
      "name": "withdrawValue",
      "outputs": [
        {
          "internalType": "uint256",
          "name": "",
          "type": "uint256"
        }
      ],
      "stateMutability": "view",
      "type": "function",
      "constant": true
    },
    {
      "inputs": [
        {
          "internalType": "address",
          "name": "_newOwner",
          "type": "address"
        }
      ],
      "name": "changeOwner",
      "outputs": [],
      "stateMutability": "nonpayable",
      "type": "function"
    },
    {
      "inputs": [
        {
          "internalType": "address",
          "name": "_newWithdrawer",
          "type": "address"
        }
      ],
      "name": "addWithdrawer",
      "outputs": [],
      "stateMutability": "nonpayable",
      "type": "function"
    },
    {
      "inputs": [
        {
          "internalType": "address",
          "name": "_withdrawer",
          "type": "address"
        }
      ],
      "name": "removeWithdrawer",
      "outputs": [],
      "stateMutability": "nonpayable",
      "type": "function"
    },
    {
      "inputs": [
        {
          "internalType": "address",
          "name": "_newConfirmer",
          "type": "address"
        }
      ],
      "name": "addConfirmer",
      "outputs": [],
      "stateMutability": "nonpayable",
      "type": "function"
    },
    {
      "inputs": [
        {
          "internalType": "address",
          "name": "_confirmer",
          "type": "address"
        }
      ],
      "name": "removeConfirmer",
      "outputs": [],
      "stateMutability": "nonpayable",
      "type": "function"
    },
    {
      "inputs": [
        {
          "internalType": "uint256",
          "name": "amount",
          "type": "uint256"
        }
      ],
      "name": "depositFunds",
      "outputs": [],
      "stateMutability": "nonpayable",
      "type": "function"
    },
    {
      "inputs": [
        {
          "internalType": "uint256",
          "name": "_value",
          "type": "uint256"
        },
        {
          "internalType": "address",
          "name": "_toPay",
          "type": "address"
        }
      ],
      "name": "initiateWithdraw",
      "outputs": [],
      "stateMutability": "nonpayable",
      "type": "function"
    },
    {
      "inputs": [],
      "name": "cancelWithdraw",
      "outputs": [],
      "stateMutability": "nonpayable",
      "type": "function"
    },
    {
      "inputs": [
        {
          "internalType": "bool",
          "name": "_withdraw",
          "type": "bool"
        },
        {
          "internalType": "uint256",
          "name": "_value",
          "type": "uint256"
        },
        {
          "internalType": "address",
          "name": "_toPay",
          "type": "address"
        }
      ],
      "name": "withdrawFunds",
      "outputs": [],
      "stateMutability": "nonpayable",
      "type": "function"
    },
    {
      "inputs": [
        {
          "internalType": "uint256",
          "name": "_value",
          "type": "uint256"
        }
      ],
      "name": "ownerWithdraw",
      "outputs": [],
      "stateMutability": "nonpayable",
      "type": "function"
    }
  ],
  "bytecode": "0x608060405273e0fba4fc209b4948668006b2be61711b7f465bae600660006101000a81548173ffffffffffffffffffffffffffffffffffffffff021916908373ffffffffffffffffffffffffffffffffffffffff1602179055503480156200006657600080fd5b50604051620021913803806200219183398181016040528101906200008c919062000396565b620000ab600060010233620001eb640100000000026401000000009004565b620000e67f5d8e12c39142ff96d79d04d15d1ba1269e4fe57bb9d26f43523628b34ba108ec33620001eb640100000000026401000000009004565b620001217ffddac4449a361e3913224ad159a928d20230d6569e72e52e9eec15d2838be8b533620001eb640100000000026401000000009004565b33600560006101000a81548173ffffffffffffffffffffffffffffffffffffffff021916908373ffffffffffffffffffffffffffffffffffffffff16021790555080600260006101000a81548173ffffffffffffffffffffffffffffffffffffffff021916908373ffffffffffffffffffffffffffffffffffffffff16021790555080600160006101000a81548173ffffffffffffffffffffffffffffffffffffffff021916908373ffffffffffffffffffffffffffffffffffffffff160217905550506200041b565b6200020682826200020a640100000000026401000000009004565b5050565b6200022582826200030d640100000000026401000000009004565b6200030957600160008084815260200190815260200160002060000160008373ffffffffffffffffffffffffffffffffffffffff1673ffffffffffffffffffffffffffffffffffffffff16815260200190815260200160002060006101000a81548160ff021916908315150217905550620002ae62000377640100000000026401000000009004565b73ffffffffffffffffffffffffffffffffffffffff168173ffffffffffffffffffffffffffffffffffffffff16837f2f8788117e7eff1d82e926ec794901d17c78024a50270940304540a733656f0d60405160405180910390a45b5050565b600080600084815260200190815260200160002060000160008373ffffffffffffffffffffffffffffffffffffffff1673ffffffffffffffffffffffffffffffffffffffff16815260200190815260200160002060009054906101000a900460ff16905092915050565b600033905090565b600081519050620003908162000401565b92915050565b600060208284031215620003af57620003ae620003fc565b5b6000620003bf848285016200037f565b91505092915050565b6000620003d582620003dc565b9050919050565b600073ffffffffffffffffffffffffffffffffffffffff82169050919050565b600080fd5b6200040c81620003c8565b81146200041857600080fd5b50565b611d66806200042b6000396000f3fe608060405234801561001057600080fd5b5060043610610175576000357c01000000000000000000000000000000000000000000000000000000009004806356788a8c116100e0578063a217fddf11610099578063a217fddf146103a6578063a6f9dae1146103c4578063d547741f146103e0578063e02023a1146103fc578063e9cbd8221461041a578063ef9f35741461043857610175565b806356788a8c146102fa578063711bd9eb1461031657806375d966e91461033257806384b768241461034e5780638da5cb5b1461035857806391d148541461037657610175565b806333f707d11161013257806333f707d11461025057806336568abe1461026c5780633b76594d146102885780633d40a527146102a45780633dc3e2a8146102c05780634ac3a713146102de57610175565b806301ffc9a71461017a57806314d8353f146101aa5780631581b600146101c857806316f0115b146101e6578063248a9ca3146102045780632f2ff15d14610234575b600080fd5b610194600480360381019061018f919061157b565b610454565b6040516101a1919061188c565b60405180910390f35b6101b26104ce565b6040516101bf91906118a7565b60405180910390f35b6101d06104f2565b6040516101dd91906117cc565b60405180910390f35b6101ee610518565b6040516101fb91906117cc565b60405180910390f35b61021e6004803603810190610219919061150e565b61053e565b60405161022b91906118a7565b60405180910390f35b61024e6004803603810190610249919061153b565b61055d565b005b61026a600480360381019061026591906115a8565b610586565b005b6102866004803603810190610281919061153b565b61066c565b005b6102a2600480360381019061029d91906115a8565b6106ef565b005b6102be60048036038101906102b991906114bb565b6107c4565b005b6102c86109fb565b6040516102d5919061193f565b60405180910390f35b6102f860048036038101906102f39190611602565b610a01565b005b610314600480360381019061030f9190611461565b610a9b565b005b610330600480360381019061032b9190611461565b610ac8565b005b61034c60048036038101906103479190611461565b610af5565b005b610356610b22565b005b610360610bdd565b60405161036d91906117cc565b60405180910390f35b610390600480360381019061038b919061153b565b610c03565b60405161039d919061188c565b60405180910390f35b6103ae610c6d565b6040516103bb91906118a7565b60405180910390f35b6103de60048036038101906103d99190611461565b610c75565b005b6103fa60048036038101906103f5919061153b565b610dfa565b005b610404610e23565b60405161041191906118a7565b60405180910390f35b610422610e47565b60405161042f91906118c2565b60405180910390f35b610452600480360381019061044d9190611461565b610e6d565b005b60007f7965db0b000000000000000000000000000000000000000000000000000000007bffffffffffffffffffffffffffffffffffffffffffffffffffffffff1916827bffffffffffffffffffffffffffffffffffffffffffffffffffffffff191614806104c757506104c682610e9a565b5b9050919050565b7ffddac4449a361e3913224ad159a928d20230d6569e72e52e9eec15d2838be8b581565b600460009054906101000a900473ffffffffffffffffffffffffffffffffffffffff1681565b600660009054906101000a900473ffffffffffffffffffffffffffffffffffffffff1681565b6000806000838152602001908152602001600020600101549050919050565b6105668261053e565b61057781610572610f04565b610f0c565b6105818383610faa565b505050565b600060010261059c81610597610f04565b610f0c565b600260009054906101000a900473ffffffffffffffffffffffffffffffffffffffff1673ffffffffffffffffffffffffffffffffffffffff1663a9059cbb33846040518363ffffffff167c01000000000000000000000000000000000000000000000000000000000281526004016106159291906117e7565b602060405180830381600087803b15801561062f57600080fd5b505af1158015610643573d6000803e3d6000fd5b505050506040513d601f19601f82011682018060405250810190610667919061148e565b505050565b610674610f04565b73ffffffffffffffffffffffffffffffffffffffff168173ffffffffffffffffffffffffffffffffffffffff16146106e1576040517f08c379a00000000000000000000000000000000000000000000000000000000081526004016106d89061191f565b60405180910390fd5b6106eb828261108a565b5050565b600660009054906101000a900473ffffffffffffffffffffffffffffffffffffffff1673ffffffffffffffffffffffffffffffffffffffff1663e8eda9df600160009054906101000a900473ffffffffffffffffffffffffffffffffffffffff16833060006040518563ffffffff167c010000000000000000000000000000000000000000000000000000000002815260040161078f9493929190611847565b600060405180830381600087803b1580156107a957600080fd5b505af11580156107bd573d6000803e3d6000fd5b5050505050565b7ffddac4449a361e3913224ad159a928d20230d6569e72e52e9eec15d2838be8b56107f6816107f1610f04565b610f0c565b600260149054906101000a900460ff1661080f57600080fd5b6003548314801561086d5750600460009054906101000a900473ffffffffffffffffffffffffffffffffffffffff1673ffffffffffffffffffffffffffffffffffffffff168273ffffffffffffffffffffffffffffffffffffffff16145b61087657600080fd5b6000600260146101000a81548160ff021916908315150217905550600560009054906101000a900473ffffffffffffffffffffffffffffffffffffffff16600460006101000a81548173ffffffffffffffffffffffffffffffffffffffff021916908373ffffffffffffffffffffffffffffffffffffffff160217905550600060038190555083156109f557600660009054906101000a900473ffffffffffffffffffffffffffffffffffffffff1673ffffffffffffffffffffffffffffffffffffffff166369328dec600160009054906101000a900473ffffffffffffffffffffffffffffffffffffffff16600354336040518463ffffffff167c01000000000000000000000000000000000000000000000000000000000281526004016109a193929190611810565b602060405180830381600087803b1580156109bb57600080fd5b505af11580156109cf573d6000803e3d6000fd5b505050506040513d601f19601f820116820180604052508101906109f391906115d5565b505b50505050565b60035481565b7f5d8e12c39142ff96d79d04d15d1ba1269e4fe57bb9d26f43523628b34ba108ec610a3381610a2e610f04565b610f0c565b6001600260146101000a81548160ff02191690831515021790555081600460006101000a81548173ffffffffffffffffffffffffffffffffffffffff021916908373ffffffffffffffffffffffffffffffffffffffff16021790555082600381905550505050565b610ac57f5d8e12c39142ff96d79d04d15d1ba1269e4fe57bb9d26f43523628b34ba108ec8261055d565b50565b610af27ffddac4449a361e3913224ad159a928d20230d6569e72e52e9eec15d2838be8b582610dfa565b50565b610b1f7ffddac4449a361e3913224ad159a928d20230d6569e72e52e9eec15d2838be8b582610dfa565b50565b7ffddac4449a361e3913224ad159a928d20230d6569e72e52e9eec15d2838be8b5610b5481610b4f610f04565b610f0c565b6000600260146101000a81548160ff021916908315150217905550600560009054906101000a900473ffffffffffffffffffffffffffffffffffffffff16600460006101000a81548173ffffffffffffffffffffffffffffffffffffffff021916908373ffffffffffffffffffffffffffffffffffffffff160217905550600060038190555050565b600560009054906101000a900473ffffffffffffffffffffffffffffffffffffffff1681565b600080600084815260200190815260200160002060000160008373ffffffffffffffffffffffffffffffffffffffff1673ffffffffffffffffffffffffffffffffffffffff16815260200190815260200160002060009054906101000a900460ff16905092915050565b600060010281565b6000600102610c8b81610c86610f04565b610f0c565b610c9960006001028361055d565b610cc37f5d8e12c39142ff96d79d04d15d1ba1269e4fe57bb9d26f43523628b34ba108ec8361055d565b610ced7ffddac4449a361e3913224ad159a928d20230d6569e72e52e9eec15d2838be8b58361055d565b610d1d6000600102600560009054906101000a900473ffffffffffffffffffffffffffffffffffffffff16610dfa565b610d697f5d8e12c39142ff96d79d04d15d1ba1269e4fe57bb9d26f43523628b34ba108ec600560009054906101000a900473ffffffffffffffffffffffffffffffffffffffff16610dfa565b610db57ffddac4449a361e3913224ad159a928d20230d6569e72e52e9eec15d2838be8b5600560009054906101000a900473ffffffffffffffffffffffffffffffffffffffff16610dfa565b81600560006101000a81548173ffffffffffffffffffffffffffffffffffffffff021916908373ffffffffffffffffffffffffffffffffffffffff1602179055505050565b610e038261053e565b610e1481610e0f610f04565b610f0c565b610e1e838361108a565b505050565b7f5d8e12c39142ff96d79d04d15d1ba1269e4fe57bb9d26f43523628b34ba108ec81565b600260009054906101000a900473ffffffffffffffffffffffffffffffffffffffff1681565b610e977ffddac4449a361e3913224ad159a928d20230d6569e72e52e9eec15d2838be8b58261055d565b50565b60007f01ffc9a7000000000000000000000000000000000000000000000000000000007bffffffffffffffffffffffffffffffffffffffffffffffffffffffff1916827bffffffffffffffffffffffffffffffffffffffffffffffffffffffff1916149050919050565b600033905090565b610f168282610c03565b610fa657610f3b8173ffffffffffffffffffffffffffffffffffffffff16601461116b565b610f4a8360019004602061116b565b604051602001610f5b929190611792565b6040516020818303038152906040526040517f08c379a0000000000000000000000000000000000000000000000000000000008152600401610f9d91906118dd565b60405180910390fd5b5050565b610fb48282610c03565b61108657600160008084815260200190815260200160002060000160008373ffffffffffffffffffffffffffffffffffffffff1673ffffffffffffffffffffffffffffffffffffffff16815260200190815260200160002060006101000a81548160ff02191690831515021790555061102b610f04565b73ffffffffffffffffffffffffffffffffffffffff168173ffffffffffffffffffffffffffffffffffffffff16837f2f8788117e7eff1d82e926ec794901d17c78024a50270940304540a733656f0d60405160405180910390a45b5050565b6110948282610c03565b1561116757600080600084815260200190815260200160002060000160008373ffffffffffffffffffffffffffffffffffffffff1673ffffffffffffffffffffffffffffffffffffffff16815260200190815260200160002060006101000a81548160ff02191690831515021790555061110c610f04565b73ffffffffffffffffffffffffffffffffffffffff168173ffffffffffffffffffffffffffffffffffffffff16837ff6391f5c32d9c69d2a47ea670b442974b53935d1edc7fd64eb21e047a839171b60405160405180910390a45b5050565b60606000600283600261117e91906119d7565b6111889190611981565b67ffffffffffffffff8111156111a1576111a0611bae565b5b6040519080825280601f01601f1916602001820160405280156111d35781602001600182028036833780820191505090505b5090507f30000000000000000000000000000000000000000000000000000000000000008160008151811061120b5761120a611b7f565b5b60200101907effffffffffffffffffffffffffffffffffffffffffffffffffffffffffffff1916908160001a9053507f78000000000000000000000000000000000000000000000000000000000000008160018151811061126f5761126e611b7f565b5b60200101907effffffffffffffffffffffffffffffffffffffffffffffffffffffffffffff1916908160001a905350600060018460026112af91906119d7565b6112b99190611981565b90505b6001811115611380577f3031323334353637383961626364656600000000000000000000000000000000600f8616601081106112fb576112fa611b7f565b5b1a7f01000000000000000000000000000000000000000000000000000000000000000282828151811061133157611330611b7f565b5b60200101907effffffffffffffffffffffffffffffffffffffffffffffffffffffffffffff1916908160001a905350600485908060020a820491505094508061137990611b26565b90506112bc565b50600084146113c4576040517f08c379a00000000000000000000000000000000000000000000000000000000081526004016113bb906118ff565b60405180910390fd5b8091505092915050565b6000813590506113dd81611cbd565b92915050565b6000813590506113f281611cd4565b92915050565b60008151905061140781611cd4565b92915050565b60008135905061141c81611ceb565b92915050565b60008135905061143181611d02565b92915050565b60008135905061144681611d19565b92915050565b60008151905061145b81611d19565b92915050565b60006020828403121561147757611476611bdd565b5b6000611485848285016113ce565b91505092915050565b6000602082840312156114a4576114a3611bdd565b5b60006114b2848285016113f8565b91505092915050565b6000806000606084860312156114d4576114d3611bdd565b5b60006114e2868287016113e3565b93505060206114f386828701611437565b9250506040611504868287016113ce565b9150509250925092565b60006020828403121561152457611523611bdd565b5b60006115328482850161140d565b91505092915050565b6000806040838503121561155257611551611bdd565b5b60006115608582860161140d565b9250506020611571858286016113ce565b9150509250929050565b60006020828403121561159157611590611bdd565b5b600061159f84828501611422565b91505092915050565b6000602082840312156115be576115bd611bdd565b5b60006115cc84828501611437565b91505092915050565b6000602082840312156115eb576115ea611bdd565b5b60006115f98482850161144c565b91505092915050565b6000806040838503121561161957611618611bdd565b5b600061162785828601611437565b9250506020611638858286016113ce565b9150509250929050565b61164b81611a31565b82525050565b61165a81611a43565b82525050565b61166981611a4f565b82525050565b61167881611abd565b82525050565b61168781611ae1565b82525050565b60006116988261195a565b6116a28185611965565b93506116b2818560208601611af3565b6116bb81611be2565b840191505092915050565b60006116d18261195a565b6116db8185611976565b93506116eb818560208601611af3565b80840191505092915050565b6000611704602083611965565b915061170f82611bf3565b602082019050919050565b6000611727601783611976565b915061173282611c1c565b601782019050919050565b600061174a601183611976565b915061175582611c45565b601182019050919050565b600061176d602f83611965565b915061177882611c6e565b604082019050919050565b61178c81611ab3565b82525050565b600061179d8261171a565b91506117a982856116c6565b91506117b48261173d565b91506117c082846116c6565b91508190509392505050565b60006020820190506117e16000830184611642565b92915050565b60006040820190506117fc6000830185611642565b6118096020830184611783565b9392505050565b60006060820190506118256000830186611642565b6118326020830185611783565b61183f6040830184611642565b949350505050565b600060808201905061185c6000830187611642565b6118696020830186611783565b6118766040830185611642565b611883606083018461167e565b95945050505050565b60006020820190506118a16000830184611651565b92915050565b60006020820190506118bc6000830184611660565b92915050565b60006020820190506118d7600083018461166f565b92915050565b600060208201905081810360008301526118f7818461168d565b905092915050565b60006020820190508181036000830152611918816116f7565b9050919050565b6000602082019050818103600083015261193881611760565b9050919050565b60006020820190506119546000830184611783565b92915050565b600081519050919050565b600082825260208201905092915050565b600081905092915050565b600061198c82611ab3565b915061199783611ab3565b9250827fffffffffffffffffffffffffffffffffffffffffffffffffffffffffffffffff038211156119cc576119cb611b50565b5b828201905092915050565b60006119e282611ab3565b91506119ed83611ab3565b9250817fffffffffffffffffffffffffffffffffffffffffffffffffffffffffffffffff0483118215151615611a2657611a25611b50565b5b828202905092915050565b6000611a3c82611a93565b9050919050565b60008115159050919050565b6000819050919050565b60007fffffffff0000000000000000000000000000000000000000000000000000000082169050919050565b600061ffff82169050919050565b600073ffffffffffffffffffffffffffffffffffffffff82169050919050565b6000819050919050565b6000611ac882611acf565b9050919050565b6000611ada82611a93565b9050919050565b6000611aec82611a85565b9050919050565b60005b83811015611b11578082015181840152602081019050611af6565b83811115611b20576000848401525b50505050565b6000611b3182611ab3565b91506000821415611b4557611b44611b50565b5b600182039050919050565b7f4e487b7100000000000000000000000000000000000000000000000000000000600052601160045260246000fd5b7f4e487b7100000000000000000000000000000000000000000000000000000000600052603260045260246000fd5b7f4e487b7100000000000000000000000000000000000000000000000000000000600052604160045260246000fd5b600080fd5b6000601f19601f8301169050919050565b7f537472696e67733a20686578206c656e67746820696e73756666696369656e74600082015250565b7f416363657373436f6e74726f6c3a206163636f756e7420000000000000000000600082015250565b7f206973206d697373696e6720726f6c6520000000000000000000000000000000600082015250565b7f416363657373436f6e74726f6c3a2063616e206f6e6c792072656e6f756e636560008201527f20726f6c657320666f722073656c660000000000000000000000000000000000602082015250565b611cc681611a31565b8114611cd157600080fd5b50565b611cdd81611a43565b8114611ce857600080fd5b50565b611cf481611a4f565b8114611cff57600080fd5b50565b611d0b81611a59565b8114611d1657600080fd5b50565b611d2281611ab3565b8114611d2d57600080fd5b5056fea264697066735822122028e499c14daed962c2d68288e50ceb816ebe3f825c6e414165fb14908a250acb64736f6c63430008060033",
  "immutableReferences": {},
  "source": "// SPDX-License-Identifier: UNLICENSED\r\npragma solidity 0.8.6;\r\nimport \"../../node_modules/@openzeppelin/contracts/access/AccessControl.sol\"; //allows for different roles to be created\r\nimport \"../../node_modules/@openzeppelin/contracts/token/ERC20/ERC20.sol\"; //the ERC20 interface, so that we can transfer tokens to and from smart contract\r\nimport {ILendingPool} from \"../../node_modules/@aave/protocol-v2/contracts/interfaces/ILendingPool.sol\";\r\n\r\n\r\n\r\ncontract PrescryptiveSmartContract is AccessControl {\r\n    //Role used for adding a withdrawer\r\n    bytes32 public constant WITHDRAW_ROLE = keccak256(\"WITHDRAW_ROLE\");\r\n\r\n    //Role for the financial team who will confirm or deny tx\r\n    bytes32 public constant CONFIRM_WITHDRAW_ROLE =\r\n        keccak256(\"CONFIRM_WITHDRAW_ROLE\");\r\n\r\n    address erc20Contract; //the contract for the token/stablecoin\r\n\r\n    ERC20 public stablecoin; //the interface for accessing stablecoin\r\n\r\n    bool private withdrawInitated; //tells if the withdraw has been initated or not\r\n    uint256 public withdrawValue; //the value of the withdrawal\r\n    address public withdrawAddress; //the address of the withdrawal\r\n    address public owner; //DEFAULT_ADMIN_ROLE address\r\n\r\n    address public pool = 0xE0fBa4Fc209b4948668006B2bE61711b7f465bAe; //The Aave Smart Contract Pool (currently set to DAI on Kovan)\r\n\r\n    constructor(address _erc20) {\r\n        //make the sender (the payer) both the admin and have withdraw rights\r\n        _setupRole(DEFAULT_ADMIN_ROLE, msg.sender);\r\n        _setupRole(WITHDRAW_ROLE, msg.sender);\r\n        _setupRole(CONFIRM_WITHDRAW_ROLE, msg.sender);\r\n        owner = msg.sender;\r\n\r\n        //add the interaction interface with the token\r\n        stablecoin = ERC20(_erc20);\r\n        erc20Contract = _erc20;\r\n    }\r\n\r\n    //depending on setup of the smart contract, the withdraw role may be unnecessary,\r\n    //if there is only one entity who should have access\r\n    //TODO - Revoke all roles from owner and grant all roles to new person\r\n\r\n    /**\r\n     * @dev - Changes the owner to a new address\r\n     */\r\n    function changeOwner(address _newOwner)\r\n        public\r\n        onlyRole(DEFAULT_ADMIN_ROLE)\r\n    {\r\n        grantRole(DEFAULT_ADMIN_ROLE, _newOwner);\r\n        grantRole(WITHDRAW_ROLE, _newOwner);\r\n        grantRole(CONFIRM_WITHDRAW_ROLE, _newOwner);\r\n\r\n        revokeRole(DEFAULT_ADMIN_ROLE, owner);\r\n        revokeRole(WITHDRAW_ROLE, owner);\r\n        revokeRole(CONFIRM_WITHDRAW_ROLE, owner);\r\n        \r\n        owner = _newOwner;\r\n    }\r\n\r\n    /**\r\n     * @dev Adds another withdrawer role to the smart contract, which can withdraw funds and do nothing else\r\n     */\r\n    function addWithdrawer(address _newWithdrawer) public {\r\n        grantRole(WITHDRAW_ROLE, _newWithdrawer);\r\n    }\r\n    \r\n    /**\r\n     * @dev removes the confirmer role from an address, meaning they can no longer confirm withdraw of funds\r\n     */\r\n    function removeWithdrawer(address _withdrawer) public {\r\n        revokeRole(CONFIRM_WITHDRAW_ROLE, _withdrawer);\r\n    }\r\n\r\n    //Should this be callable by WITHDRAW_ROLE, or require admin?\r\n    /**\r\n     * @dev Adds another confirmer role to the smart contract, which can confirm withdraw of funds and do nothing else\r\n     */\r\n    function addConfirmer(address _newConfirmer) public {\r\n        grantRole(CONFIRM_WITHDRAW_ROLE, _newConfirmer);\r\n    }\r\n\r\n    /**\r\n     * @dev removes the withdraw role from an address, meaning they can no longer withdraw funds\r\n     */\r\n    function removeConfirmer(address _confirmer) public {\r\n        revokeRole(CONFIRM_WITHDRAW_ROLE, _confirmer);\r\n    }\r\n\r\n    /**\r\n     * @dev - When funds are deposited through this function in the smart contract, \r\n        they will be sent to Aave and turn into yield-bearing\r\n        Note: Function will fail if approval (stablecoin.approve(pool, 79228162514260000000000000000)) not given first.\r\n     */\r\n    // function depositFunds(uint256 _value) public {\r\n    //     //Transfers token from caller to contract, then takes the token and converts it to interest-bearing via Aave\r\n    //     //stablecoin.transferFrom(msg.sender, address(this), _value);\r\n\r\n\r\n\r\n    //     //TODO - Add Aave integration (not possible until testnet release)\r\n    //     depositToAave(pool, erc20Contract, address(this), _value);\r\n\r\n\r\n    // }\r\n\r\n    /**\r\n     * @dev - When funds are deposited through this function in the smart contract, \r\n        they will be sent to Aave and turn into yield-bearing\r\n        Note: Function will fail if approval (stablecoin.approve(pool, 79228162514260000000000000000)) not given first.\r\n     */\r\n    function depositFunds(uint256 amount) public {\r\n        ILendingPool(pool).deposit(erc20Contract, amount, address(this), 0);\r\n  }\r\n\r\n    /**\r\n     * @dev - The first step in the withdrawal process, sets the address to pay and the value, and also tells the confirmer that everything is ready to check\r\n     */\r\n    function initiateWithdraw(uint256 _value, address _toPay)\r\n        public\r\n        onlyRole(WITHDRAW_ROLE)\r\n    {\r\n        withdrawInitated = true;\r\n\r\n        withdrawAddress = _toPay;\r\n\r\n        withdrawValue = _value;\r\n    }\r\n\r\n    /**\r\n     * @dev - Cancels the withdraw and resets all variables. Would be used in the case of a typo from the initial withdrawer\r\n     */\r\n    function cancelWithdraw() public onlyRole(CONFIRM_WITHDRAW_ROLE) {\r\n        withdrawInitated = false;\r\n        withdrawAddress = owner;\r\n        withdrawValue = 0;\r\n    }\r\n\r\n    /**\r\n     * @dev - Withdraws funds from Aave then to the msg.sender. Only works if the withdraw has been initated by the WITHDRAW_ROLE. Double confirms the value and toPay to ensure that no malicious\r\n     * WITHDRAW_ROLE could change the address and value mid-execution\r\n     */\r\n    function withdrawFunds(\r\n        bool _withdraw,\r\n        uint256 _value,\r\n        address _toPay\r\n    ) public onlyRole(CONFIRM_WITHDRAW_ROLE) {\r\n        require(withdrawInitated); //requires that the withdraw has been initated\r\n        require(_value == withdrawValue && _toPay == withdrawAddress); //Ensures that the value and payment are the same, giving double-check on payment confirmation\r\n\r\n        //immediately set to defaults to follow checks-effects-interactions\r\n        withdrawInitated = false;\r\n        withdrawAddress = owner;\r\n        withdrawValue = 0;\r\n\r\n        if (_withdraw) {\r\n            //TODO - Add Aave integration (not possible until testnet release)\r\n            ILendingPool(pool).withdraw(erc20Contract, withdrawValue, msg.sender);\r\n            //stablecoin.transfer(_toPay, _value); //withdraws to the previously defined address and value\r\n        }\r\n    }\r\n\r\n    /**\r\n     * @dev - The backdoor withdraw feature for the admin/owner address\r\n     */\r\n    function ownerWithdraw(uint256 _value) public onlyRole(DEFAULT_ADMIN_ROLE) {\r\n        //TODO - Add aave integration\r\n        stablecoin.transfer(msg.sender, _value);\r\n    }\r\n}\r\n",
  "sourcePath": "C:/Users/murrl/GithubRepos/PrescryptivePOC/Truffle/contracts/PrescryptiveSmartContract.sol",
  "compiler": {
    "name": "solc",
    "version": "0.8.6+commit.11564f7e.Emscripten.clang"
  },
  "schemaVersion": "3.4.1",
  "updatedAt": "2021-08-11T18:00:29.947Z",
  "networkType": "ethereum",
  "devdoc": {
    "kind": "dev",
    "methods": {
      "addConfirmer(address)": {
        "details": "Adds another confirmer role to the smart contract, which can confirm withdraw of funds and do nothing else"
      },
      "addWithdrawer(address)": {
        "details": "Adds another withdrawer role to the smart contract, which can withdraw funds and do nothing else"
      },
      "cancelWithdraw()": {
        "details": "- Cancels the withdraw and resets all variables. Would be used in the case of a typo from the initial withdrawer"
      },
      "changeOwner(address)": {
        "details": "- Changes the owner to a new address"
      },
      "depositFunds(uint256)": {
        "details": "- When funds are deposited through this function in the smart contract,  they will be sent to Aave and turn into yield-bearing Note: Function will fail if approval (stablecoin.approve(pool, 79228162514260000000000000000)) not given first."
      },
      "getRoleAdmin(bytes32)": {
        "details": "Returns the admin role that controls `role`. See {grantRole} and {revokeRole}. To change a role's admin, use {_setRoleAdmin}."
      },
      "grantRole(bytes32,address)": {
        "details": "Grants `role` to `account`. If `account` had not been already granted `role`, emits a {RoleGranted} event. Requirements: - the caller must have ``role``'s admin role."
      },
      "hasRole(bytes32,address)": {
        "details": "Returns `true` if `account` has been granted `role`."
      },
      "initiateWithdraw(uint256,address)": {
        "details": "- The first step in the withdrawal process, sets the address to pay and the value, and also tells the confirmer that everything is ready to check"
      },
      "ownerWithdraw(uint256)": {
        "details": "- The backdoor withdraw feature for the admin/owner address"
      },
      "removeConfirmer(address)": {
        "details": "removes the withdraw role from an address, meaning they can no longer withdraw funds"
      },
      "removeWithdrawer(address)": {
        "details": "removes the confirmer role from an address, meaning they can no longer confirm withdraw of funds"
      },
      "renounceRole(bytes32,address)": {
        "details": "Revokes `role` from the calling account. Roles are often managed via {grantRole} and {revokeRole}: this function's purpose is to provide a mechanism for accounts to lose their privileges if they are compromised (such as when a trusted device is misplaced). If the calling account had been granted `role`, emits a {RoleRevoked} event. Requirements: - the caller must be `account`."
      },
      "revokeRole(bytes32,address)": {
        "details": "Revokes `role` from `account`. If `account` had been granted `role`, emits a {RoleRevoked} event. Requirements: - the caller must have ``role``'s admin role."
      },
      "supportsInterface(bytes4)": {
        "details": "See {IERC165-supportsInterface}."
      },
      "withdrawFunds(bool,uint256,address)": {
        "details": "- Withdraws funds from Aave then to the msg.sender. Only works if the withdraw has been initated by the WITHDRAW_ROLE. Double confirms the value and toPay to ensure that no malicious WITHDRAW_ROLE could change the address and value mid-execution"
      }
    },
    "version": 1
  },
  "userdoc": {
    "kind": "user",
    "methods": {},
    "version": 1
  }
}