{
  "contractName": "PrescryptiveSmartContract",
  "abi": [
    {
      "inputs": [
        {
          "internalType": "address",
          "name": "_erc20",
          "type": "address"
        }
      ],
      "stateMutability": "nonpayable",
      "type": "constructor"
    },
    {
      "anonymous": false,
      "inputs": [
        {
          "indexed": true,
          "internalType": "bytes32",
          "name": "role",
          "type": "bytes32"
        },
        {
          "indexed": true,
          "internalType": "bytes32",
          "name": "previousAdminRole",
          "type": "bytes32"
        },
        {
          "indexed": true,
          "internalType": "bytes32",
          "name": "newAdminRole",
          "type": "bytes32"
        }
      ],
      "name": "RoleAdminChanged",
      "type": "event"
    },
    {
      "anonymous": false,
      "inputs": [
        {
          "indexed": true,
          "internalType": "bytes32",
          "name": "role",
          "type": "bytes32"
        },
        {
          "indexed": true,
          "internalType": "address",
          "name": "account",
          "type": "address"
        },
        {
          "indexed": true,
          "internalType": "address",
          "name": "sender",
          "type": "address"
        }
      ],
      "name": "RoleGranted",
      "type": "event"
    },
    {
      "anonymous": false,
      "inputs": [
        {
          "indexed": true,
          "internalType": "bytes32",
          "name": "role",
          "type": "bytes32"
        },
        {
          "indexed": true,
          "internalType": "address",
          "name": "account",
          "type": "address"
        },
        {
          "indexed": true,
          "internalType": "address",
          "name": "sender",
          "type": "address"
        }
      ],
      "name": "RoleRevoked",
      "type": "event"
    },
    {
      "anonymous": false,
      "inputs": [
        {
          "indexed": true,
          "internalType": "address",
          "name": "_to",
          "type": "address"
        },
        {
          "indexed": true,
          "internalType": "uint256",
          "name": "_amount",
          "type": "uint256"
        }
      ],
      "name": "withdrawInitatedByWithdrawer",
      "type": "event"
    },
    {
      "inputs": [],
      "name": "CONFIRM_WITHDRAW_ROLE",
      "outputs": [
        {
          "internalType": "bytes32",
          "name": "",
          "type": "bytes32"
        }
      ],
      "stateMutability": "view",
      "type": "function",
      "constant": true
    },
    {
      "inputs": [],
      "name": "DEFAULT_ADMIN_ROLE",
      "outputs": [
        {
          "internalType": "bytes32",
          "name": "",
          "type": "bytes32"
        }
      ],
      "stateMutability": "view",
      "type": "function",
      "constant": true
    },
    {
      "inputs": [],
      "name": "WITHDRAW_ROLE",
      "outputs": [
        {
          "internalType": "bytes32",
          "name": "",
          "type": "bytes32"
        }
      ],
      "stateMutability": "view",
      "type": "function",
      "constant": true
    },
    {
      "inputs": [
        {
          "internalType": "bytes32",
          "name": "role",
          "type": "bytes32"
        }
      ],
      "name": "getRoleAdmin",
      "outputs": [
        {
          "internalType": "bytes32",
          "name": "",
          "type": "bytes32"
        }
      ],
      "stateMutability": "view",
      "type": "function",
      "constant": true
    },
    {
      "inputs": [
        {
          "internalType": "bytes32",
          "name": "role",
          "type": "bytes32"
        },
        {
          "internalType": "address",
          "name": "account",
          "type": "address"
        }
      ],
      "name": "grantRole",
      "outputs": [],
      "stateMutability": "nonpayable",
      "type": "function"
    },
    {
      "inputs": [
        {
          "internalType": "bytes32",
          "name": "role",
          "type": "bytes32"
        },
        {
          "internalType": "address",
          "name": "account",
          "type": "address"
        }
      ],
      "name": "hasRole",
      "outputs": [
        {
          "internalType": "bool",
          "name": "",
          "type": "bool"
        }
      ],
      "stateMutability": "view",
      "type": "function",
      "constant": true
    },
    {
      "inputs": [],
      "name": "owner",
      "outputs": [
        {
          "internalType": "address",
          "name": "",
          "type": "address"
        }
      ],
      "stateMutability": "view",
      "type": "function",
      "constant": true
    },
    {
      "inputs": [],
      "name": "pool",
      "outputs": [
        {
          "internalType": "address",
          "name": "",
          "type": "address"
        }
      ],
      "stateMutability": "view",
      "type": "function",
      "constant": true
    },
    {
      "inputs": [
        {
          "internalType": "bytes32",
          "name": "role",
          "type": "bytes32"
        },
        {
          "internalType": "address",
          "name": "account",
          "type": "address"
        }
      ],
      "name": "renounceRole",
      "outputs": [],
      "stateMutability": "nonpayable",
      "type": "function"
    },
    {
      "inputs": [
        {
          "internalType": "bytes32",
          "name": "role",
          "type": "bytes32"
        },
        {
          "internalType": "address",
          "name": "account",
          "type": "address"
        }
      ],
      "name": "revokeRole",
      "outputs": [],
      "stateMutability": "nonpayable",
      "type": "function"
    },
    {
      "inputs": [
        {
          "internalType": "bytes4",
          "name": "interfaceId",
          "type": "bytes4"
        }
      ],
      "name": "supportsInterface",
      "outputs": [
        {
          "internalType": "bool",
          "name": "",
          "type": "bool"
        }
      ],
      "stateMutability": "view",
      "type": "function",
      "constant": true
    },
    {
      "inputs": [],
      "name": "withdrawAddress",
      "outputs": [
        {
          "internalType": "address",
          "name": "",
          "type": "address"
        }
      ],
      "stateMutability": "view",
      "type": "function",
      "constant": true
    },
    {
      "inputs": [],
      "name": "withdrawValue",
      "outputs": [
        {
          "internalType": "uint256",
          "name": "",
          "type": "uint256"
        }
      ],
      "stateMutability": "view",
      "type": "function",
      "constant": true
    },
    {
      "inputs": [
        {
          "internalType": "address",
          "name": "_newOwner",
          "type": "address"
        }
      ],
      "name": "changeOwner",
      "outputs": [],
      "stateMutability": "nonpayable",
      "type": "function"
    },
    {
      "inputs": [
        {
          "internalType": "address",
          "name": "_newWithdrawer",
          "type": "address"
        }
      ],
      "name": "addWithdrawer",
      "outputs": [],
      "stateMutability": "nonpayable",
      "type": "function"
    },
    {
      "inputs": [
        {
          "internalType": "address",
          "name": "_withdrawer",
          "type": "address"
        }
      ],
      "name": "removeWithdrawer",
      "outputs": [],
      "stateMutability": "nonpayable",
      "type": "function"
    },
    {
      "inputs": [
        {
          "internalType": "address",
          "name": "_newConfirmer",
          "type": "address"
        }
      ],
      "name": "addConfirmer",
      "outputs": [],
      "stateMutability": "nonpayable",
      "type": "function"
    },
    {
      "inputs": [
        {
          "internalType": "address",
          "name": "_confirmer",
          "type": "address"
        }
      ],
      "name": "removeConfirmer",
      "outputs": [],
      "stateMutability": "nonpayable",
      "type": "function"
    },
    {
      "inputs": [
        {
          "internalType": "uint256",
          "name": "_value",
          "type": "uint256"
        },
        {
          "internalType": "address",
          "name": "_toPay",
          "type": "address"
        }
      ],
      "name": "initiateWithdraw",
      "outputs": [],
      "stateMutability": "nonpayable",
      "type": "function"
    },
    {
      "inputs": [],
      "name": "cancelWithdraw",
      "outputs": [],
      "stateMutability": "nonpayable",
      "type": "function"
    },
    {
      "inputs": [
        {
          "internalType": "bool",
          "name": "_withdraw",
          "type": "bool"
        },
        {
          "internalType": "uint256",
          "name": "_value",
          "type": "uint256"
        },
        {
          "internalType": "address",
          "name": "_toPay",
          "type": "address"
        }
      ],
      "name": "withdrawFunds",
      "outputs": [],
      "stateMutability": "nonpayable",
      "type": "function"
    },
    {
      "inputs": [
        {
          "internalType": "uint256",
          "name": "_value",
          "type": "uint256"
        }
      ],
      "name": "ownerWithdraw",
      "outputs": [],
      "stateMutability": "nonpayable",
      "type": "function"
    }
  ],
  "bytecode": "0x6080604052739198f13b08e299d85e096929fa9781a1e3d5d827600560006101000a81548173ffffffffffffffffffffffffffffffffffffffff021916908373ffffffffffffffffffffffffffffffffffffffff160217905550600560009054906101000a900473ffffffffffffffffffffffffffffffffffffffff16600660006101000a81548173ffffffffffffffffffffffffffffffffffffffff021916908373ffffffffffffffffffffffffffffffffffffffff160217905550348015620000c957600080fd5b5060405162001ab938038062001ab983398181016040526020811015620000ef57600080fd5b8101908080519060200190929190505050620001156000801b336200020260201b60201c565b620001477f5d8e12c39142ff96d79d04d15d1ba1269e4fe57bb9d26f43523628b34ba108ec336200020260201b60201c565b620001797ffddac4449a361e3913224ad159a928d20230d6569e72e52e9eec15d2838be8b5336200020260201b60201c565b33600460006101000a81548173ffffffffffffffffffffffffffffffffffffffff021916908373ffffffffffffffffffffffffffffffffffffffff16021790555080600160006101000a81548173ffffffffffffffffffffffffffffffffffffffff021916908373ffffffffffffffffffffffffffffffffffffffff160217905550506200037b565b6200021482826200021860201b60201c565b5050565b6200022a82826200030960201b60201c565b6200030557600160008084815260200190815260200160002060000160008373ffffffffffffffffffffffffffffffffffffffff1673ffffffffffffffffffffffffffffffffffffffff16815260200190815260200160002060006101000a81548160ff021916908315150217905550620002aa6200037360201b60201c565b73ffffffffffffffffffffffffffffffffffffffff168173ffffffffffffffffffffffffffffffffffffffff16837f2f8788117e7eff1d82e926ec794901d17c78024a50270940304540a733656f0d60405160405180910390a45b5050565b600080600084815260200190815260200160002060000160008373ffffffffffffffffffffffffffffffffffffffff1673ffffffffffffffffffffffffffffffffffffffff16815260200190815260200160002060009054906101000a900460ff16905092915050565b600033905090565b61172e806200038b6000396000f3fe608060405234801561001057600080fd5b50600436106101425760003560e01c806356788a8c116100b857806391d148541161007c57806391d148541461050c578063a217fddf14610570578063a6f9dae11461058e578063d547741f146105d2578063e02023a114610620578063ef9f35741461063e57610142565b806356788a8c14610402578063711bd9eb1461044657806375d966e91461048a57806384b76824146104ce5780638da5cb5b146104d857610142565b80632f2ff15d1161010a5780632f2ff15d1461027257806333f707d1146102c057806336568abe146102ee5780633d40a5271461033c5780633dc3e2a8146103965780634ac3a713146103b457610142565b806301ffc9a71461014757806314d8353f146101aa5780631581b600146101c857806316f0115b146101fc578063248a9ca314610230575b600080fd5b6101926004803603602081101561015d57600080fd5b8101908080357bffffffffffffffffffffffffffffffffffffffffffffffffffffffff19169060200190929190505050610682565b60405180821515815260200191505060405180910390f35b6101b26106fc565b6040518082815260200191505060405180910390f35b6101d0610720565b604051808273ffffffffffffffffffffffffffffffffffffffff16815260200191505060405180910390f35b610204610746565b604051808273ffffffffffffffffffffffffffffffffffffffff16815260200191505060405180910390f35b61025c6004803603602081101561024657600080fd5b810190808035906020019092919050505061076c565b6040518082815260200191505060405180910390f35b6102be6004803603604081101561028857600080fd5b8101908080359060200190929190803573ffffffffffffffffffffffffffffffffffffffff16906020019092919050505061078b565b005b6102ec600480360360208110156102d657600080fd5b81019080803590602001909291905050506107b4565b005b61033a6004803603604081101561030457600080fd5b8101908080359060200190929190803573ffffffffffffffffffffffffffffffffffffffff1690602001909291905050506108dc565b005b6103946004803603606081101561035257600080fd5b8101908080351515906020019092919080359060200190929190803573ffffffffffffffffffffffffffffffffffffffff169060200190929190505050610975565b005b61039e610bc9565b6040518082815260200191505060405180910390f35b610400600480360360408110156103ca57600080fd5b8101908080359060200190929190803573ffffffffffffffffffffffffffffffffffffffff169060200190929190505050610bcf565b005b6104446004803603602081101561041857600080fd5b81019080803573ffffffffffffffffffffffffffffffffffffffff169060200190929190505050610cac565b005b6104886004803603602081101561045c57600080fd5b81019080803573ffffffffffffffffffffffffffffffffffffffff169060200190929190505050610cd9565b005b6104cc600480360360208110156104a057600080fd5b81019080803573ffffffffffffffffffffffffffffffffffffffff169060200190929190505050610d06565b005b6104d6610d33565b005b6104e0610dee565b604051808273ffffffffffffffffffffffffffffffffffffffff16815260200191505060405180910390f35b6105586004803603604081101561052257600080fd5b8101908080359060200190929190803573ffffffffffffffffffffffffffffffffffffffff169060200190929190505050610e14565b60405180821515815260200191505060405180910390f35b610578610e7e565b6040518082815260200191505060405180910390f35b6105d0600480360360208110156105a457600080fd5b81019080803573ffffffffffffffffffffffffffffffffffffffff169060200190929190505050610e85565b005b61061e600480360360408110156105e857600080fd5b8101908080359060200190929190803573ffffffffffffffffffffffffffffffffffffffff169060200190929190505050611007565b005b610628611030565b6040518082815260200191505060405180910390f35b6106806004803603602081101561065457600080fd5b81019080803573ffffffffffffffffffffffffffffffffffffffff169060200190929190505050611054565b005b60007f7965db0b000000000000000000000000000000000000000000000000000000007bffffffffffffffffffffffffffffffffffffffffffffffffffffffff1916827bffffffffffffffffffffffffffffffffffffffffffffffffffffffff191614806106f557506106f482611081565b5b9050919050565b7ffddac4449a361e3913224ad159a928d20230d6569e72e52e9eec15d2838be8b581565b600360009054906101000a900473ffffffffffffffffffffffffffffffffffffffff1681565b600560009054906101000a900473ffffffffffffffffffffffffffffffffffffffff1681565b6000806000838152602001908152602001600020600101549050919050565b6107948261076c565b6107a5816107a06110eb565b6110f3565b6107af83836112e1565b505050565b6000801b6107c9816107c46110eb565b6110f3565b600660009054906101000a900473ffffffffffffffffffffffffffffffffffffffff1673ffffffffffffffffffffffffffffffffffffffff166369328dec600160009054906101000a900473ffffffffffffffffffffffffffffffffffffffff1684336040518463ffffffff1660e01b8152600401808473ffffffffffffffffffffffffffffffffffffffff1681526020018381526020018273ffffffffffffffffffffffffffffffffffffffff1681526020019350505050602060405180830381600087803b15801561089c57600080fd5b505af11580156108b0573d6000803e3d6000fd5b505050506040513d60208110156108c657600080fd5b8101908080519060200190929190505050505050565b6108e46110eb565b73ffffffffffffffffffffffffffffffffffffffff168173ffffffffffffffffffffffffffffffffffffffff1614610967576040517f08c379a000000000000000000000000000000000000000000000000000000000815260040180806020018281038252602f8152602001806116ca602f913960400191505060405180910390fd5b61097182826113c1565b5050565b7ffddac4449a361e3913224ad159a928d20230d6569e72e52e9eec15d2838be8b56109a7816109a26110eb565b6110f3565b600160149054906101000a900460ff166109c057600080fd5b60025483148015610a1e5750600360009054906101000a900473ffffffffffffffffffffffffffffffffffffffff1673ffffffffffffffffffffffffffffffffffffffff168273ffffffffffffffffffffffffffffffffffffffff16145b610a2757600080fd5b6000600160146101000a81548160ff021916908315150217905550600460009054906101000a900473ffffffffffffffffffffffffffffffffffffffff16600360006101000a81548173ffffffffffffffffffffffffffffffffffffffff021916908373ffffffffffffffffffffffffffffffffffffffff16021790555060006002819055508315610bc357600660009054906101000a900473ffffffffffffffffffffffffffffffffffffffff1673ffffffffffffffffffffffffffffffffffffffff166369328dec600160009054906101000a900473ffffffffffffffffffffffffffffffffffffffff1685856040518463ffffffff1660e01b8152600401808473ffffffffffffffffffffffffffffffffffffffff1681526020018381526020018273ffffffffffffffffffffffffffffffffffffffff1681526020019350505050602060405180830381600087803b158015610b8657600080fd5b505af1158015610b9a573d6000803e3d6000fd5b505050506040513d6020811015610bb057600080fd5b8101908080519060200190929190505050505b50505050565b60025481565b7f5d8e12c39142ff96d79d04d15d1ba1269e4fe57bb9d26f43523628b34ba108ec610c0181610bfc6110eb565b6110f3565b60018060146101000a81548160ff02191690831515021790555081600360006101000a81548173ffffffffffffffffffffffffffffffffffffffff021916908373ffffffffffffffffffffffffffffffffffffffff16021790555082600281905550828273ffffffffffffffffffffffffffffffffffffffff167f93bba41adeebd4a545a9c92a844a32aaf1b0a05a277dbe9df40d8f20da8f565860405160405180910390a3505050565b610cd67f5d8e12c39142ff96d79d04d15d1ba1269e4fe57bb9d26f43523628b34ba108ec8261078b565b50565b610d037f5d8e12c39142ff96d79d04d15d1ba1269e4fe57bb9d26f43523628b34ba108ec82611007565b50565b610d307ffddac4449a361e3913224ad159a928d20230d6569e72e52e9eec15d2838be8b582611007565b50565b7ffddac4449a361e3913224ad159a928d20230d6569e72e52e9eec15d2838be8b5610d6581610d606110eb565b6110f3565b6000600160146101000a81548160ff021916908315150217905550600460009054906101000a900473ffffffffffffffffffffffffffffffffffffffff16600360006101000a81548173ffffffffffffffffffffffffffffffffffffffff021916908373ffffffffffffffffffffffffffffffffffffffff160217905550600060028190555050565b600460009054906101000a900473ffffffffffffffffffffffffffffffffffffffff1681565b600080600084815260200190815260200160002060000160008373ffffffffffffffffffffffffffffffffffffffff1673ffffffffffffffffffffffffffffffffffffffff16815260200190815260200160002060009054906101000a900460ff16905092915050565b6000801b81565b6000801b610e9a81610e956110eb565b6110f3565b610ea76000801b8361078b565b610ed17f5d8e12c39142ff96d79d04d15d1ba1269e4fe57bb9d26f43523628b34ba108ec8361078b565b610efb7ffddac4449a361e3913224ad159a928d20230d6569e72e52e9eec15d2838be8b58361078b565b610f2a6000801b600460009054906101000a900473ffffffffffffffffffffffffffffffffffffffff16611007565b610f767f5d8e12c39142ff96d79d04d15d1ba1269e4fe57bb9d26f43523628b34ba108ec600460009054906101000a900473ffffffffffffffffffffffffffffffffffffffff16611007565b610fc27ffddac4449a361e3913224ad159a928d20230d6569e72e52e9eec15d2838be8b5600460009054906101000a900473ffffffffffffffffffffffffffffffffffffffff16611007565b81600460006101000a81548173ffffffffffffffffffffffffffffffffffffffff021916908373ffffffffffffffffffffffffffffffffffffffff1602179055505050565b6110108261076c565b6110218161101c6110eb565b6110f3565b61102b83836113c1565b505050565b7f5d8e12c39142ff96d79d04d15d1ba1269e4fe57bb9d26f43523628b34ba108ec81565b61107e7ffddac4449a361e3913224ad159a928d20230d6569e72e52e9eec15d2838be8b58261078b565b50565b60007f01ffc9a7000000000000000000000000000000000000000000000000000000007bffffffffffffffffffffffffffffffffffffffffffffffffffffffff1916827bffffffffffffffffffffffffffffffffffffffffffffffffffffffff1916149050919050565b600033905090565b6110fd8282610e14565b6112dd576111228173ffffffffffffffffffffffffffffffffffffffff1660146114a2565b6111308360001c60206114a2565b60405160200180807f416363657373436f6e74726f6c3a206163636f756e742000000000000000000081525060170183805190602001908083835b6020831061118e578051825260208201915060208101905060208303925061116b565b6001836020036101000a038019825116818451168082178552505050505050905001807f206973206d697373696e6720726f6c652000000000000000000000000000000081525060110182805190602001908083835b6020831061120757805182526020820191506020810190506020830392506111e4565b6001836020036101000a038019825116818451168082178552505050505050905001925050506040516020818303038152906040526040517f08c379a00000000000000000000000000000000000000000000000000000000081526004018080602001828103825283818151815260200191508051906020019080838360005b838110156112a2578082015181840152602081019050611287565b50505050905090810190601f1680156112cf5780820380516001836020036101000a031916815260200191505b509250505060405180910390fd5b5050565b6112eb8282610e14565b6113bd57600160008084815260200190815260200160002060000160008373ffffffffffffffffffffffffffffffffffffffff1673ffffffffffffffffffffffffffffffffffffffff16815260200190815260200160002060006101000a81548160ff0219169083151502179055506113626110eb565b73ffffffffffffffffffffffffffffffffffffffff168173ffffffffffffffffffffffffffffffffffffffff16837f2f8788117e7eff1d82e926ec794901d17c78024a50270940304540a733656f0d60405160405180910390a45b5050565b6113cb8282610e14565b1561149e57600080600084815260200190815260200160002060000160008373ffffffffffffffffffffffffffffffffffffffff1673ffffffffffffffffffffffffffffffffffffffff16815260200190815260200160002060006101000a81548160ff0219169083151502179055506114436110eb565b73ffffffffffffffffffffffffffffffffffffffff168173ffffffffffffffffffffffffffffffffffffffff16837ff6391f5c32d9c69d2a47ea670b442974b53935d1edc7fd64eb21e047a839171b60405160405180910390a45b5050565b6060806002836002020167ffffffffffffffff811180156114c257600080fd5b506040519080825280601f01601f1916602001820160405280156114f55781602001600182028036833780820191505090505b5090507f30000000000000000000000000000000000000000000000000000000000000008160008151811061152657fe5b60200101907effffffffffffffffffffffffffffffffffffffffffffffffffffffffffffff1916908160001a9053507f78000000000000000000000000000000000000000000000000000000000000008160018151811061158357fe5b60200101907effffffffffffffffffffffffffffffffffffffffffffffffffffffffffffff1916908160001a90535060006001846002020190505b6001811115611648577f3031323334353637383961626364656600000000000000000000000000000000600f8616601081106115f657fe5b1a60f81b82828151811061160657fe5b60200101907effffffffffffffffffffffffffffffffffffffffffffffffffffffffffffff1916908160001a905350600485901c9450806001900390506115be565b50600084146116bf576040517f08c379a00000000000000000000000000000000000000000000000000000000081526004018080602001828103825260208152602001807f537472696e67733a20686578206c656e67746820696e73756666696369656e7481525060200191505060405180910390fd5b809150509291505056fe416363657373436f6e74726f6c3a2063616e206f6e6c792072656e6f756e636520726f6c657320666f722073656c66a26469706673582212202aa40f868b03e9d265bd494018a448ccf406a8b9303b9497a31dd8747d6d5fc064736f6c634300060c0033",
  "immutableReferences": {},
  "source": "// SPDX-License-Identifier: UNLICENSED\r\npragma solidity >=0.4.22 <0.9.0;\r\nimport \"../../node_modules/@openzeppelin/contracts/access/AccessControl.sol\"; //allows for different roles to be created\r\nimport \"../../node_modules/@aave/protocol-v2/contracts/protocol/lendingpool/LendingPool.sol\";\r\n\r\ncontract PrescryptiveSmartContract is AccessControl {\r\n    //Role used for adding a withdrawer\r\n    bytes32 public constant WITHDRAW_ROLE = keccak256(\"WITHDRAW_ROLE\");\r\n\r\n    //Role for the financial team who will confirm or deny tx\r\n    bytes32 public constant CONFIRM_WITHDRAW_ROLE =\r\n        keccak256(\"CONFIRM_WITHDRAW_ROLE\");\r\n\r\n    address erc20Contract; //the contract for the token/stablecoin\r\n\r\n    bool private withdrawInitated; //tells if the withdraw has been initated or not\r\n    uint256 public withdrawValue; //the value of the withdrawal\r\n    address public withdrawAddress; //the address of the withdrawal\r\n    address public owner; //DEFAULT_ADMIN_ROLE address\r\n\r\n    event withdrawInitatedByWithdrawer(\r\n        address indexed _to,\r\n        uint256 indexed _amount\r\n    );\r\n\r\n    address public pool = 0x9198F13B08E299d85E096929fA9781A1E3d5d827; //The Aave Smart Contract Pool (currently set to USDC on Mumbai)\r\n\r\n    LendingPool private stablecoinPool = LendingPool(pool); //the lending pool\r\n\r\n    constructor(address _erc20) public {\r\n        //make the sender (the payer) both the admin and have withdraw rights\r\n        _setupRole(DEFAULT_ADMIN_ROLE, msg.sender);\r\n        _setupRole(WITHDRAW_ROLE, msg.sender);\r\n        _setupRole(CONFIRM_WITHDRAW_ROLE, msg.sender);\r\n        owner = msg.sender;\r\n\r\n        //add the interaction interface with the token\r\n        // stablecoin = ERC20(_erc20);\r\n        erc20Contract = _erc20;\r\n    }\r\n\r\n    //depending on setup of the smart contract, the withdraw role may be unnecessary,\r\n    //if there is only one entity who should have access\r\n\r\n    /**\r\n     * @dev - Changes the owner to a new address\r\n     */\r\n    function changeOwner(address _newOwner)\r\n        public\r\n        onlyRole(DEFAULT_ADMIN_ROLE)\r\n    {\r\n        grantRole(DEFAULT_ADMIN_ROLE, _newOwner);\r\n        grantRole(WITHDRAW_ROLE, _newOwner);\r\n        grantRole(CONFIRM_WITHDRAW_ROLE, _newOwner);\r\n\r\n        revokeRole(DEFAULT_ADMIN_ROLE, owner);\r\n        revokeRole(WITHDRAW_ROLE, owner);\r\n        revokeRole(CONFIRM_WITHDRAW_ROLE, owner);\r\n\r\n        owner = _newOwner;\r\n    }\r\n\r\n    /**\r\n     * @dev Adds another withdrawer role to the smart contract, which can withdraw funds and do nothing else\r\n     */\r\n    function addWithdrawer(address _newWithdrawer) public {\r\n        grantRole(WITHDRAW_ROLE, _newWithdrawer);\r\n    }\r\n\r\n    /**\r\n     * @dev removes the confirmer role from an address, meaning they can no longer confirm withdraw of funds\r\n     */\r\n    function removeWithdrawer(address _withdrawer) public {\r\n        revokeRole(WITHDRAW_ROLE, _withdrawer);\r\n    }\r\n\r\n    //Should this be callable by WITHDRAW_ROLE, or require admin?\r\n    /**\r\n     * @dev Adds another confirmer role to the smart contract, which can confirm withdraw of funds and do nothing else\r\n     */\r\n    function addConfirmer(address _newConfirmer) public {\r\n        grantRole(CONFIRM_WITHDRAW_ROLE, _newConfirmer);\r\n    }\r\n\r\n    /**\r\n     * @dev removes the withdraw role from an address, meaning they can no longer withdraw funds\r\n     */\r\n    function removeConfirmer(address _confirmer) public {\r\n        revokeRole(CONFIRM_WITHDRAW_ROLE, _confirmer);\r\n    }\r\n\r\n    /**\r\n     * @dev - The first step in the withdrawal process, sets the address to pay and the value, and also tells the confirmer that everything is ready to check\r\n     */\r\n    function initiateWithdraw(uint256 _value, address _toPay)\r\n        public\r\n        onlyRole(WITHDRAW_ROLE)\r\n    {\r\n        withdrawInitated = true;\r\n\r\n        withdrawAddress = _toPay;\r\n\r\n        withdrawValue = _value;\r\n\r\n        emit withdrawInitatedByWithdrawer(_toPay, _value);\r\n    }\r\n\r\n    /**\r\n     * @dev - Cancels the withdraw and resets all variables. Would be used in the case of a typo from the initial withdrawer\r\n     */\r\n    function cancelWithdraw() public onlyRole(CONFIRM_WITHDRAW_ROLE) {\r\n        withdrawInitated = false;\r\n        withdrawAddress = owner;\r\n        withdrawValue = 0;\r\n    }\r\n\r\n    /**\r\n     * @dev - Withdraws funds from Aave then to the msg.sender. Only works if the withdraw has been initated by the WITHDRAW_ROLE. Double confirms the value and toPay to ensure that no malicious\r\n     * WITHDRAW_ROLE could change the address and value mid-execution\r\n     */\r\n    function withdrawFunds(\r\n        bool _withdraw,\r\n        uint256 _value,\r\n        address _toPay\r\n    ) public onlyRole(CONFIRM_WITHDRAW_ROLE) {\r\n        require(withdrawInitated); //requires that the withdraw has been initated\r\n        require(_value == withdrawValue && _toPay == withdrawAddress); //Ensures that the value and payment are the same, giving double-check on payment confirmation\r\n\r\n        //immediately set to defaults to follow checks-effects-interactions\r\n        withdrawInitated = false;\r\n        withdrawAddress = owner;\r\n        withdrawValue = 0;\r\n\r\n        if (_withdraw) {\r\n            stablecoinPool.withdraw(erc20Contract, _value, _toPay);\r\n        }\r\n    }\r\n\r\n    /**\r\n     * @dev - The backdoor withdraw feature for the admin/owner address\r\n     */\r\n    function ownerWithdraw(uint256 _value) public onlyRole(DEFAULT_ADMIN_ROLE) {\r\n        stablecoinPool.withdraw(erc20Contract, _value, msg.sender);\r\n    }\r\n}\r\n",
  "sourcePath": "C:/Users/murrl/GithubRepos/PrescryptivePOC/Truffle/contracts/PrescryptiveSmartContract.sol",
  "compiler": {
    "name": "solc",
    "version": "0.6.12+commit.27d51765.Emscripten.clang"
  },
  "schemaVersion": "3.4.1",
  "updatedAt": "2021-08-19T20:10:05.738Z",
  "networkType": "ethereum",
  "devdoc": {
    "kind": "dev",
    "methods": {
      "addConfirmer(address)": {
        "details": "Adds another confirmer role to the smart contract, which can confirm withdraw of funds and do nothing else"
      },
      "addWithdrawer(address)": {
        "details": "Adds another withdrawer role to the smart contract, which can withdraw funds and do nothing else"
      },
      "cancelWithdraw()": {
        "details": "- Cancels the withdraw and resets all variables. Would be used in the case of a typo from the initial withdrawer"
      },
      "changeOwner(address)": {
        "details": "- Changes the owner to a new address"
      },
      "getRoleAdmin(bytes32)": {
        "details": "Returns the admin role that controls `role`. See {grantRole} and {revokeRole}. To change a role's admin, use {_setRoleAdmin}."
      },
      "grantRole(bytes32,address)": {
        "details": "Grants `role` to `account`. If `account` had not been already granted `role`, emits a {RoleGranted} event. Requirements: - the caller must have ``role``'s admin role."
      },
      "hasRole(bytes32,address)": {
        "details": "Returns `true` if `account` has been granted `role`."
      },
      "initiateWithdraw(uint256,address)": {
        "details": "- The first step in the withdrawal process, sets the address to pay and the value, and also tells the confirmer that everything is ready to check"
      },
      "ownerWithdraw(uint256)": {
        "details": "- The backdoor withdraw feature for the admin/owner address"
      },
      "removeConfirmer(address)": {
        "details": "removes the withdraw role from an address, meaning they can no longer withdraw funds"
      },
      "removeWithdrawer(address)": {
        "details": "removes the confirmer role from an address, meaning they can no longer confirm withdraw of funds"
      },
      "renounceRole(bytes32,address)": {
        "details": "Revokes `role` from the calling account. Roles are often managed via {grantRole} and {revokeRole}: this function's purpose is to provide a mechanism for accounts to lose their privileges if they are compromised (such as when a trusted device is misplaced). If the calling account had been granted `role`, emits a {RoleRevoked} event. Requirements: - the caller must be `account`."
      },
      "revokeRole(bytes32,address)": {
        "details": "Revokes `role` from `account`. If `account` had been granted `role`, emits a {RoleRevoked} event. Requirements: - the caller must have ``role``'s admin role."
      },
      "supportsInterface(bytes4)": {
        "details": "See {IERC165-supportsInterface}."
      },
      "withdrawFunds(bool,uint256,address)": {
        "details": "- Withdraws funds from Aave then to the msg.sender. Only works if the withdraw has been initated by the WITHDRAW_ROLE. Double confirms the value and toPay to ensure that no malicious WITHDRAW_ROLE could change the address and value mid-execution"
      }
    },
    "version": 1
  },
  "userdoc": {
    "kind": "user",
    "methods": {},
    "version": 1
  }
}