{
  "contractName": "PrescryptiveSmartContract",
  "abi": [
    {
      "inputs": [
        {
          "internalType": "address",
          "name": "_erc20",
          "type": "address"
        }
      ],
      "stateMutability": "nonpayable",
      "type": "constructor"
    },
    {
      "anonymous": false,
      "inputs": [
        {
          "indexed": true,
          "internalType": "bytes32",
          "name": "role",
          "type": "bytes32"
        },
        {
          "indexed": true,
          "internalType": "bytes32",
          "name": "previousAdminRole",
          "type": "bytes32"
        },
        {
          "indexed": true,
          "internalType": "bytes32",
          "name": "newAdminRole",
          "type": "bytes32"
        }
      ],
      "name": "RoleAdminChanged",
      "type": "event"
    },
    {
      "anonymous": false,
      "inputs": [
        {
          "indexed": true,
          "internalType": "bytes32",
          "name": "role",
          "type": "bytes32"
        },
        {
          "indexed": true,
          "internalType": "address",
          "name": "account",
          "type": "address"
        },
        {
          "indexed": true,
          "internalType": "address",
          "name": "sender",
          "type": "address"
        }
      ],
      "name": "RoleGranted",
      "type": "event"
    },
    {
      "anonymous": false,
      "inputs": [
        {
          "indexed": true,
          "internalType": "bytes32",
          "name": "role",
          "type": "bytes32"
        },
        {
          "indexed": true,
          "internalType": "address",
          "name": "account",
          "type": "address"
        },
        {
          "indexed": true,
          "internalType": "address",
          "name": "sender",
          "type": "address"
        }
      ],
      "name": "RoleRevoked",
      "type": "event"
    },
    {
      "inputs": [],
      "name": "CONFIRM_WITHDRAW_ROLE",
      "outputs": [
        {
          "internalType": "bytes32",
          "name": "",
          "type": "bytes32"
        }
      ],
      "stateMutability": "view",
      "type": "function"
    },
    {
      "inputs": [],
      "name": "DEFAULT_ADMIN_ROLE",
      "outputs": [
        {
          "internalType": "bytes32",
          "name": "",
          "type": "bytes32"
        }
      ],
      "stateMutability": "view",
      "type": "function"
    },
    {
      "inputs": [],
      "name": "WITHDRAW_ROLE",
      "outputs": [
        {
          "internalType": "bytes32",
          "name": "",
          "type": "bytes32"
        }
      ],
      "stateMutability": "view",
      "type": "function"
    },
    {
      "inputs": [
        {
          "internalType": "bytes32",
          "name": "role",
          "type": "bytes32"
        }
      ],
      "name": "getRoleAdmin",
      "outputs": [
        {
          "internalType": "bytes32",
          "name": "",
          "type": "bytes32"
        }
      ],
      "stateMutability": "view",
      "type": "function"
    },
    {
      "inputs": [
        {
          "internalType": "bytes32",
          "name": "role",
          "type": "bytes32"
        },
        {
          "internalType": "address",
          "name": "account",
          "type": "address"
        }
      ],
      "name": "grantRole",
      "outputs": [],
      "stateMutability": "nonpayable",
      "type": "function"
    },
    {
      "inputs": [
        {
          "internalType": "bytes32",
          "name": "role",
          "type": "bytes32"
        },
        {
          "internalType": "address",
          "name": "account",
          "type": "address"
        }
      ],
      "name": "hasRole",
      "outputs": [
        {
          "internalType": "bool",
          "name": "",
          "type": "bool"
        }
      ],
      "stateMutability": "view",
      "type": "function"
    },
    {
      "inputs": [],
      "name": "owner",
      "outputs": [
        {
          "internalType": "address",
          "name": "",
          "type": "address"
        }
      ],
      "stateMutability": "view",
      "type": "function"
    },
    {
      "inputs": [],
      "name": "pool",
      "outputs": [
        {
          "internalType": "address",
          "name": "",
          "type": "address"
        }
      ],
      "stateMutability": "view",
      "type": "function"
    },
    {
      "inputs": [
        {
          "internalType": "bytes32",
          "name": "role",
          "type": "bytes32"
        },
        {
          "internalType": "address",
          "name": "account",
          "type": "address"
        }
      ],
      "name": "renounceRole",
      "outputs": [],
      "stateMutability": "nonpayable",
      "type": "function"
    },
    {
      "inputs": [
        {
          "internalType": "bytes32",
          "name": "role",
          "type": "bytes32"
        },
        {
          "internalType": "address",
          "name": "account",
          "type": "address"
        }
      ],
      "name": "revokeRole",
      "outputs": [],
      "stateMutability": "nonpayable",
      "type": "function"
    },
    {
      "inputs": [],
      "name": "stablecoin",
      "outputs": [
        {
          "internalType": "contract ERC20",
          "name": "",
          "type": "address"
        }
      ],
      "stateMutability": "view",
      "type": "function"
    },
    {
      "inputs": [
        {
          "internalType": "bytes4",
          "name": "interfaceId",
          "type": "bytes4"
        }
      ],
      "name": "supportsInterface",
      "outputs": [
        {
          "internalType": "bool",
          "name": "",
          "type": "bool"
        }
      ],
      "stateMutability": "view",
      "type": "function"
    },
    {
      "inputs": [],
      "name": "withdrawAddress",
      "outputs": [
        {
          "internalType": "address",
          "name": "",
          "type": "address"
        }
      ],
      "stateMutability": "view",
      "type": "function"
    },
    {
      "inputs": [],
      "name": "withdrawValue",
      "outputs": [
        {
          "internalType": "uint256",
          "name": "",
          "type": "uint256"
        }
      ],
      "stateMutability": "view",
      "type": "function"
    },
    {
      "inputs": [
        {
          "internalType": "address",
          "name": "_newOwner",
          "type": "address"
        }
      ],
      "name": "changeOwner",
      "outputs": [],
      "stateMutability": "nonpayable",
      "type": "function"
    },
    {
      "inputs": [
        {
          "internalType": "address",
          "name": "_newWithdrawer",
          "type": "address"
        }
      ],
      "name": "addWithdrawer",
      "outputs": [],
      "stateMutability": "nonpayable",
      "type": "function"
    },
    {
      "inputs": [
        {
          "internalType": "address",
          "name": "_withdrawer",
          "type": "address"
        }
      ],
      "name": "removeWithdrawer",
      "outputs": [],
      "stateMutability": "nonpayable",
      "type": "function"
    },
    {
      "inputs": [
        {
          "internalType": "address",
          "name": "_newConfirmer",
          "type": "address"
        }
      ],
      "name": "addConfirmer",
      "outputs": [],
      "stateMutability": "nonpayable",
      "type": "function"
    },
    {
      "inputs": [
        {
          "internalType": "address",
          "name": "_confirmer",
          "type": "address"
        }
      ],
      "name": "removeConfirmer",
      "outputs": [],
      "stateMutability": "nonpayable",
      "type": "function"
    },
    {
      "inputs": [
        {
          "internalType": "uint256",
          "name": "_value",
          "type": "uint256"
        }
      ],
      "name": "depositFunds",
      "outputs": [],
      "stateMutability": "nonpayable",
      "type": "function"
    },
    {
      "inputs": [
        {
          "internalType": "uint256",
          "name": "_value",
          "type": "uint256"
        },
        {
          "internalType": "address",
          "name": "_toPay",
          "type": "address"
        }
      ],
      "name": "initiateWithdraw",
      "outputs": [],
      "stateMutability": "nonpayable",
      "type": "function"
    },
    {
      "inputs": [],
      "name": "cancelWithdraw",
      "outputs": [],
      "stateMutability": "nonpayable",
      "type": "function"
    },
    {
      "inputs": [
        {
          "internalType": "bool",
          "name": "_withdraw",
          "type": "bool"
        },
        {
          "internalType": "uint256",
          "name": "_value",
          "type": "uint256"
        },
        {
          "internalType": "address",
          "name": "_toPay",
          "type": "address"
        }
      ],
      "name": "withdrawFunds",
      "outputs": [],
      "stateMutability": "nonpayable",
      "type": "function"
    },
    {
      "inputs": [
        {
          "internalType": "uint256",
          "name": "_value",
          "type": "uint256"
        }
      ],
      "name": "ownerWithdraw",
      "outputs": [],
      "stateMutability": "nonpayable",
      "type": "function"
    }
  ],
  "bytecode": "0x608060405273e0fba4fc209b4948668006b2be61711b7f465bae600660006101000a81548173ffffffffffffffffffffffffffffffffffffffff021916908373ffffffffffffffffffffffffffffffffffffffff1602179055503480156200006657600080fd5b5060405162001fde38038062001fde83398181016040528101906200008c919062000396565b620000ab600060010233620001eb640100000000026401000000009004565b620000e67f5d8e12c39142ff96d79d04d15d1ba1269e4fe57bb9d26f43523628b34ba108ec33620001eb640100000000026401000000009004565b620001217ffddac4449a361e3913224ad159a928d20230d6569e72e52e9eec15d2838be8b533620001eb640100000000026401000000009004565b33600560006101000a81548173ffffffffffffffffffffffffffffffffffffffff021916908373ffffffffffffffffffffffffffffffffffffffff16021790555080600260006101000a81548173ffffffffffffffffffffffffffffffffffffffff021916908373ffffffffffffffffffffffffffffffffffffffff16021790555080600160006101000a81548173ffffffffffffffffffffffffffffffffffffffff021916908373ffffffffffffffffffffffffffffffffffffffff1602179055505062000410565b6200020682826200020a640100000000026401000000009004565b5050565b6200022582826200030d640100000000026401000000009004565b6200030957600160008084815260200190815260200160002060000160008373ffffffffffffffffffffffffffffffffffffffff1673ffffffffffffffffffffffffffffffffffffffff16815260200190815260200160002060006101000a81548160ff021916908315150217905550620002ae62000377640100000000026401000000009004565b73ffffffffffffffffffffffffffffffffffffffff168173ffffffffffffffffffffffffffffffffffffffff16837f2f8788117e7eff1d82e926ec794901d17c78024a50270940304540a733656f0d60405160405180910390a45b5050565b600080600084815260200190815260200160002060000160008373ffffffffffffffffffffffffffffffffffffffff1673ffffffffffffffffffffffffffffffffffffffff16815260200190815260200160002060009054906101000a900460ff16905092915050565b600033905090565b6000815190506200039081620003f6565b92915050565b600060208284031215620003a957600080fd5b6000620003b9848285016200037f565b91505092915050565b6000620003cf82620003d6565b9050919050565b600073ffffffffffffffffffffffffffffffffffffffff82169050919050565b6200040181620003c2565b81146200040d57600080fd5b50565b611bbe80620004206000396000f3fe608060405234801561001057600080fd5b5060043610610175576000357c01000000000000000000000000000000000000000000000000000000009004806356788a8c116100e0578063a217fddf11610099578063a217fddf146103a6578063a6f9dae1146103c4578063d547741f146103e0578063e02023a1146103fc578063e9cbd8221461041a578063ef9f35741461043857610175565b806356788a8c146102fa578063711bd9eb1461031657806375d966e91461033257806384b768241461034e5780638da5cb5b1461035857806391d148541461037657610175565b806333f707d11161013257806333f707d11461025057806336568abe1461026c5780633b76594d146102885780633d40a527146102a45780633dc3e2a8146102c05780634ac3a713146102de57610175565b806301ffc9a71461017a57806314d8353f146101aa5780631581b600146101c857806316f0115b146101e6578063248a9ca3146102045780632f2ff15d14610234575b600080fd5b610194600480360381019061018f9190611513565b610454565b6040516101a19190611831565b60405180910390f35b6101b26104ce565b6040516101bf919061184c565b60405180910390f35b6101d06104f2565b6040516101dd91906117b6565b60405180910390f35b6101ee610518565b6040516101fb91906117b6565b60405180910390f35b61021e600480360381019061021991906114ae565b61053e565b60405161022b919061184c565b60405180910390f35b61024e600480360381019061024991906114d7565b61055d565b005b61026a6004803603810190610265919061153c565b610586565b005b610286600480360381019061028191906114d7565b61066c565b005b6102a2600480360381019061029d919061153c565b6106ef565b005b6102be60048036038101906102b9919061145f565b6107c0565b005b6102c86108fe565b6040516102d591906118e4565b60405180910390f35b6102f860048036038101906102f39190611565565b610904565b005b610314600480360381019061030f919061140d565b61099e565b005b610330600480360381019061032b919061140d565b6109cb565b005b61034c6004803603810190610347919061140d565b6109f8565b005b610356610a25565b005b610360610ae0565b60405161036d91906117b6565b60405180910390f35b610390600480360381019061038b91906114d7565b610b06565b60405161039d9190611831565b60405180910390f35b6103ae610b70565b6040516103bb919061184c565b60405180910390f35b6103de60048036038101906103d9919061140d565b610b78565b005b6103fa60048036038101906103f591906114d7565b610cfd565b005b610404610d26565b604051610411919061184c565b60405180910390f35b610422610d4a565b60405161042f9190611867565b60405180910390f35b610452600480360381019061044d919061140d565b610d70565b005b60007f7965db0b000000000000000000000000000000000000000000000000000000007bffffffffffffffffffffffffffffffffffffffffffffffffffffffff1916827bffffffffffffffffffffffffffffffffffffffffffffffffffffffff191614806104c757506104c682610d9d565b5b9050919050565b7ffddac4449a361e3913224ad159a928d20230d6569e72e52e9eec15d2838be8b581565b600460009054906101000a900473ffffffffffffffffffffffffffffffffffffffff1681565b600660009054906101000a900473ffffffffffffffffffffffffffffffffffffffff1681565b6000806000838152602001908152602001600020600101549050919050565b6105668261053e565b61057781610572610e07565b610e0f565b6105818383610ead565b505050565b600060010261059c81610597610e07565b610e0f565b600260009054906101000a900473ffffffffffffffffffffffffffffffffffffffff1673ffffffffffffffffffffffffffffffffffffffff1663a9059cbb33846040518363ffffffff167c0100000000000000000000000000000000000000000000000000000000028152600401610615929190611808565b602060405180830381600087803b15801561062f57600080fd5b505af1158015610643573d6000803e3d6000fd5b505050506040513d601f19601f820116820180604052508101906106679190611436565b505050565b610674610e07565b73ffffffffffffffffffffffffffffffffffffffff168173ffffffffffffffffffffffffffffffffffffffff16146106e1576040517f08c379a00000000000000000000000000000000000000000000000000000000081526004016106d8906118c4565b60405180910390fd5b6106eb8282610f8d565b5050565b600260009054906101000a900473ffffffffffffffffffffffffffffffffffffffff1673ffffffffffffffffffffffffffffffffffffffff166323b872dd3330846040518463ffffffff167c010000000000000000000000000000000000000000000000000000000002815260040161076a939291906117d1565b602060405180830381600087803b15801561078457600080fd5b505af1158015610798573d6000803e3d6000fd5b505050506040513d601f19601f820116820180604052508101906107bc9190611436565b5050565b7ffddac4449a361e3913224ad159a928d20230d6569e72e52e9eec15d2838be8b56107f2816107ed610e07565b610e0f565b600260149054906101000a900460ff1661080b57600080fd5b600354831480156108695750600460009054906101000a900473ffffffffffffffffffffffffffffffffffffffff1673ffffffffffffffffffffffffffffffffffffffff168273ffffffffffffffffffffffffffffffffffffffff16145b61087257600080fd5b6000600260146101000a81548160ff021916908315150217905550600560009054906101000a900473ffffffffffffffffffffffffffffffffffffffff16600460006101000a81548173ffffffffffffffffffffffffffffffffffffffff021916908373ffffffffffffffffffffffffffffffffffffffff160217905550600060038190555050505050565b60035481565b7f5d8e12c39142ff96d79d04d15d1ba1269e4fe57bb9d26f43523628b34ba108ec61093681610931610e07565b610e0f565b6001600260146101000a81548160ff02191690831515021790555081600460006101000a81548173ffffffffffffffffffffffffffffffffffffffff021916908373ffffffffffffffffffffffffffffffffffffffff16021790555082600381905550505050565b6109c87f5d8e12c39142ff96d79d04d15d1ba1269e4fe57bb9d26f43523628b34ba108ec8261055d565b50565b6109f57ffddac4449a361e3913224ad159a928d20230d6569e72e52e9eec15d2838be8b582610cfd565b50565b610a227ffddac4449a361e3913224ad159a928d20230d6569e72e52e9eec15d2838be8b582610cfd565b50565b7ffddac4449a361e3913224ad159a928d20230d6569e72e52e9eec15d2838be8b5610a5781610a52610e07565b610e0f565b6000600260146101000a81548160ff021916908315150217905550600560009054906101000a900473ffffffffffffffffffffffffffffffffffffffff16600460006101000a81548173ffffffffffffffffffffffffffffffffffffffff021916908373ffffffffffffffffffffffffffffffffffffffff160217905550600060038190555050565b600560009054906101000a900473ffffffffffffffffffffffffffffffffffffffff1681565b600080600084815260200190815260200160002060000160008373ffffffffffffffffffffffffffffffffffffffff1673ffffffffffffffffffffffffffffffffffffffff16815260200190815260200160002060009054906101000a900460ff16905092915050565b600060010281565b6000600102610b8e81610b89610e07565b610e0f565b610b9c60006001028361055d565b610bc67f5d8e12c39142ff96d79d04d15d1ba1269e4fe57bb9d26f43523628b34ba108ec8361055d565b610bf07ffddac4449a361e3913224ad159a928d20230d6569e72e52e9eec15d2838be8b58361055d565b610c206000600102600560009054906101000a900473ffffffffffffffffffffffffffffffffffffffff16610cfd565b610c6c7f5d8e12c39142ff96d79d04d15d1ba1269e4fe57bb9d26f43523628b34ba108ec600560009054906101000a900473ffffffffffffffffffffffffffffffffffffffff16610cfd565b610cb87ffddac4449a361e3913224ad159a928d20230d6569e72e52e9eec15d2838be8b5600560009054906101000a900473ffffffffffffffffffffffffffffffffffffffff16610cfd565b81600560006101000a81548173ffffffffffffffffffffffffffffffffffffffff021916908373ffffffffffffffffffffffffffffffffffffffff1602179055505050565b610d068261053e565b610d1781610d12610e07565b610e0f565b610d218383610f8d565b505050565b7f5d8e12c39142ff96d79d04d15d1ba1269e4fe57bb9d26f43523628b34ba108ec81565b600260009054906101000a900473ffffffffffffffffffffffffffffffffffffffff1681565b610d9a7ffddac4449a361e3913224ad159a928d20230d6569e72e52e9eec15d2838be8b58261055d565b50565b60007f01ffc9a7000000000000000000000000000000000000000000000000000000007bffffffffffffffffffffffffffffffffffffffffffffffffffffffff1916827bffffffffffffffffffffffffffffffffffffffffffffffffffffffff1916149050919050565b600033905090565b610e198282610b06565b610ea957610e3e8173ffffffffffffffffffffffffffffffffffffffff16601461106e565b610e4d8360019004602061106e565b604051602001610e5e92919061177c565b6040516020818303038152906040526040517f08c379a0000000000000000000000000000000000000000000000000000000008152600401610ea09190611882565b60405180910390fd5b5050565b610eb78282610b06565b610f8957600160008084815260200190815260200160002060000160008373ffffffffffffffffffffffffffffffffffffffff1673ffffffffffffffffffffffffffffffffffffffff16815260200190815260200160002060006101000a81548160ff021916908315150217905550610f2e610e07565b73ffffffffffffffffffffffffffffffffffffffff168173ffffffffffffffffffffffffffffffffffffffff16837f2f8788117e7eff1d82e926ec794901d17c78024a50270940304540a733656f0d60405160405180910390a45b5050565b610f978282610b06565b1561106a57600080600084815260200190815260200160002060000160008373ffffffffffffffffffffffffffffffffffffffff1673ffffffffffffffffffffffffffffffffffffffff16815260200190815260200160002060006101000a81548160ff02191690831515021790555061100f610e07565b73ffffffffffffffffffffffffffffffffffffffff168173ffffffffffffffffffffffffffffffffffffffff16837ff6391f5c32d9c69d2a47ea670b442974b53935d1edc7fd64eb21e047a839171b60405160405180910390a45b5050565b606060006002836002611081919061197c565b61108b9190611926565b67ffffffffffffffff8111156110ca577f4e487b7100000000000000000000000000000000000000000000000000000000600052604160045260246000fd5b6040519080825280601f01601f1916602001820160405280156110fc5781602001600182028036833780820191505090505b5090507f30000000000000000000000000000000000000000000000000000000000000008160008151811061115a577f4e487b7100000000000000000000000000000000000000000000000000000000600052603260045260246000fd5b60200101907effffffffffffffffffffffffffffffffffffffffffffffffffffffffffffff1916908160001a9053507f7800000000000000000000000000000000000000000000000000000000000000816001815181106111e4577f4e487b7100000000000000000000000000000000000000000000000000000000600052603260045260246000fd5b60200101907effffffffffffffffffffffffffffffffffffffffffffffffffffffffffffff1916908160001a90535060006001846002611224919061197c565b61122e9190611926565b90505b6001811115611341577f3031323334353637383961626364656600000000000000000000000000000000600f861660108110611296577f4e487b7100000000000000000000000000000000000000000000000000000000600052603260045260246000fd5b1a7f0100000000000000000000000000000000000000000000000000000000000000028282815181106112f2577f4e487b7100000000000000000000000000000000000000000000000000000000600052603260045260246000fd5b60200101907effffffffffffffffffffffffffffffffffffffffffffffffffffffffffffff1916908160001a905350600485908060020a820491505094508061133a90611aab565b9050611231565b5060008414611385576040517f08c379a000000000000000000000000000000000000000000000000000000000815260040161137c906118a4565b60405180910390fd5b8091505092915050565b60008135905061139e81611b15565b92915050565b6000813590506113b381611b2c565b92915050565b6000815190506113c881611b2c565b92915050565b6000813590506113dd81611b43565b92915050565b6000813590506113f281611b5a565b92915050565b60008135905061140781611b71565b92915050565b60006020828403121561141f57600080fd5b600061142d8482850161138f565b91505092915050565b60006020828403121561144857600080fd5b6000611456848285016113b9565b91505092915050565b60008060006060848603121561147457600080fd5b6000611482868287016113a4565b9350506020611493868287016113f8565b92505060406114a48682870161138f565b9150509250925092565b6000602082840312156114c057600080fd5b60006114ce848285016113ce565b91505092915050565b600080604083850312156114ea57600080fd5b60006114f8858286016113ce565b92505060206115098582860161138f565b9150509250929050565b60006020828403121561152557600080fd5b6000611533848285016113e3565b91505092915050565b60006020828403121561154e57600080fd5b600061155c848285016113f8565b91505092915050565b6000806040838503121561157857600080fd5b6000611586858286016113f8565b92505060206115978582860161138f565b9150509250929050565b6115aa816119d6565b82525050565b6115b9816119e8565b82525050565b6115c8816119f4565b82525050565b6115d781611a54565b82525050565b60006115e8826118ff565b6115f2818561190a565b9350611602818560208601611a78565b61160b81611b04565b840191505092915050565b6000611621826118ff565b61162b818561191b565b935061163b818560208601611a78565b80840191505092915050565b600061165460208361190a565b91507f537472696e67733a20686578206c656e67746820696e73756666696369656e746000830152602082019050919050565b600061169460178361191b565b91507f416363657373436f6e74726f6c3a206163636f756e74200000000000000000006000830152601782019050919050565b60006116d460118361191b565b91507f206973206d697373696e6720726f6c65200000000000000000000000000000006000830152601182019050919050565b6000611714602f8361190a565b91507f416363657373436f6e74726f6c3a2063616e206f6e6c792072656e6f756e636560008301527f20726f6c657320666f722073656c6600000000000000000000000000000000006020830152604082019050919050565b61177681611a4a565b82525050565b600061178782611687565b91506117938285611616565b915061179e826116c7565b91506117aa8284611616565b91508190509392505050565b60006020820190506117cb60008301846115a1565b92915050565b60006060820190506117e660008301866115a1565b6117f360208301856115a1565b611800604083018461176d565b949350505050565b600060408201905061181d60008301856115a1565b61182a602083018461176d565b9392505050565b600060208201905061184660008301846115b0565b92915050565b600060208201905061186160008301846115bf565b92915050565b600060208201905061187c60008301846115ce565b92915050565b6000602082019050818103600083015261189c81846115dd565b905092915050565b600060208201905081810360008301526118bd81611647565b9050919050565b600060208201905081810360008301526118dd81611707565b9050919050565b60006020820190506118f9600083018461176d565b92915050565b600081519050919050565b600082825260208201905092915050565b600081905092915050565b600061193182611a4a565b915061193c83611a4a565b9250827fffffffffffffffffffffffffffffffffffffffffffffffffffffffffffffffff0382111561197157611970611ad5565b5b828201905092915050565b600061198782611a4a565b915061199283611a4a565b9250817fffffffffffffffffffffffffffffffffffffffffffffffffffffffffffffffff04831182151516156119cb576119ca611ad5565b5b828202905092915050565b60006119e182611a2a565b9050919050565b60008115159050919050565b6000819050919050565b60007fffffffff0000000000000000000000000000000000000000000000000000000082169050919050565b600073ffffffffffffffffffffffffffffffffffffffff82169050919050565b6000819050919050565b6000611a5f82611a66565b9050919050565b6000611a7182611a2a565b9050919050565b60005b83811015611a96578082015181840152602081019050611a7b565b83811115611aa5576000848401525b50505050565b6000611ab682611a4a565b91506000821415611aca57611ac9611ad5565b5b600182039050919050565b7f4e487b7100000000000000000000000000000000000000000000000000000000600052601160045260246000fd5b6000601f19601f8301169050919050565b611b1e816119d6565b8114611b2957600080fd5b50565b611b35816119e8565b8114611b4057600080fd5b50565b611b4c816119f4565b8114611b5757600080fd5b50565b611b63816119fe565b8114611b6e57600080fd5b50565b611b7a81611a4a565b8114611b8557600080fd5b5056fea26469706673582212207f39c2071cbb566e4ba47c96f37eb5ee1e3faba4ac649575dd9076b7eccd730864736f6c63430008000033",
  "immutableReferences": {},
  "source": "// SPDX-License-Identifier: UNLICENSED\r\npragma solidity >=0.4.22 <0.9.0;\r\nimport \"../../node_modules/@openzeppelin/contracts/access/AccessControl.sol\"; //allows for different roles to be created\r\n//import \"../../node_modules/@aave/protocol-v2/contracts/protocol/lendingpool/LendingPool.sol\";\r\nimport \"../../node_modules/@openzeppelin/contracts/token/ERC20/ERC20.sol\"; //the ERC20 interface, so that we can transfer tokens to and from smart contract\r\n\r\n\r\ncontract PrescryptiveSmartContract is AccessControl {\r\n    //Role used for adding a withdrawer\r\n    bytes32 public constant WITHDRAW_ROLE = keccak256(\"WITHDRAW_ROLE\");\r\n\r\n    //Role for the financial team who will confirm or deny tx\r\n    bytes32 public constant CONFIRM_WITHDRAW_ROLE =\r\n        keccak256(\"CONFIRM_WITHDRAW_ROLE\");\r\n\r\n    address erc20Contract; //the contract for the token/stablecoin\r\n\r\n    ERC20 public stablecoin; //the interface for accessing stablecoin\r\n\r\n    bool private withdrawInitated; //tells if the withdraw has been initated or not\r\n    uint256 public withdrawValue; //the value of the withdrawal\r\n    address public withdrawAddress; //the address of the withdrawal\r\n    address public owner; //DEFAULT_ADMIN_ROLE address\r\n\r\n    address public pool = 0xE0fBa4Fc209b4948668006B2bE61711b7f465bAe; //The Aave Smart Contract Pool (currently set to DAI on Kovan)\r\n\r\n    //LendingPool private stablecoinPool = LendingPool(pool); //the lending pool\r\n\r\n    constructor(address _erc20) {\r\n        //make the sender (the payer) both the admin and have withdraw rights\r\n        _setupRole(DEFAULT_ADMIN_ROLE, msg.sender);\r\n        _setupRole(WITHDRAW_ROLE, msg.sender);\r\n        _setupRole(CONFIRM_WITHDRAW_ROLE, msg.sender);\r\n        owner = msg.sender;\r\n\r\n        //add the interaction interface with the token\r\n        stablecoin = ERC20(_erc20);\r\n        erc20Contract = _erc20;\r\n    }\r\n\r\n    //depending on setup of the smart contract, the withdraw role may be unnecessary,\r\n    //if there is only one entity who should have access\r\n    //TODO - Revoke all roles from owner and grant all roles to new person\r\n\r\n    /**\r\n     * @dev - Changes the owner to a new address\r\n     */\r\n    function changeOwner(address _newOwner)\r\n        public\r\n        onlyRole(DEFAULT_ADMIN_ROLE)\r\n    {\r\n        grantRole(DEFAULT_ADMIN_ROLE, _newOwner);\r\n        grantRole(WITHDRAW_ROLE, _newOwner);\r\n        grantRole(CONFIRM_WITHDRAW_ROLE, _newOwner);\r\n\r\n        revokeRole(DEFAULT_ADMIN_ROLE, owner);\r\n        revokeRole(WITHDRAW_ROLE, owner);\r\n        revokeRole(CONFIRM_WITHDRAW_ROLE, owner);\r\n        \r\n        owner = _newOwner;\r\n    }\r\n\r\n    /**\r\n     * @dev Adds another withdrawer role to the smart contract, which can withdraw funds and do nothing else\r\n     */\r\n    function addWithdrawer(address _newWithdrawer) public {\r\n        grantRole(WITHDRAW_ROLE, _newWithdrawer);\r\n    }\r\n    \r\n    /**\r\n     * @dev removes the confirmer role from an address, meaning they can no longer confirm withdraw of funds\r\n     */\r\n    function removeWithdrawer(address _withdrawer) public {\r\n        revokeRole(CONFIRM_WITHDRAW_ROLE, _withdrawer);\r\n    }\r\n\r\n    //Should this be callable by WITHDRAW_ROLE, or require admin?\r\n    /**\r\n     * @dev Adds another confirmer role to the smart contract, which can confirm withdraw of funds and do nothing else\r\n     */\r\n    function addConfirmer(address _newConfirmer) public {\r\n        grantRole(CONFIRM_WITHDRAW_ROLE, _newConfirmer);\r\n    }\r\n\r\n    /**\r\n     * @dev removes the withdraw role from an address, meaning they can no longer withdraw funds\r\n     */\r\n    function removeConfirmer(address _confirmer) public {\r\n        revokeRole(CONFIRM_WITHDRAW_ROLE, _confirmer);\r\n    }\r\n\r\n    /**\r\n     * @dev - When funds are deposited through this function in the smart contract, \r\n        they will be sent to Aave and turn into yield-bearing\r\n        Note: Function will fail if approval (stablecoin.approve(smartContractAddress, 79228162514260000000000000000)) not given first.\r\n     */\r\n    function depositFunds(uint256 _value) public {\r\n        //Transfers token from caller to contract, then takes the token and converts it to interest-bearing via Aave\r\n        stablecoin.transferFrom(msg.sender, address(this), _value);\r\n\r\n\r\n\r\n        //TODO - Add Aave integration (not possible until testnet release)\r\n        //depositToAave(pool, erc20Contract, address(this), _value);\r\n\r\n\r\n    }\r\n\r\n    // /**\r\n    //  * @dev - When funds are deposited through this function in the smart contract, \r\n    //     they will be sent to Aave and turn into yield-bearing\r\n    //     Note: Function will fail if approval (stablecoin.approve(LendingPoolCore, 79228162514260000000000000000)) not given first.\r\n    //  */\r\n    // function depositFunds(uint256 amount) public {\r\n    //     stablecoinPool.deposit(erc20Contract, amount, msg.sender);\r\n    // }\r\n\r\n    /**\r\n     * @dev - The first step in the withdrawal process, sets the address to pay and the value, and also tells the confirmer that everything is ready to check\r\n     */\r\n    function initiateWithdraw(uint256 _value, address _toPay)\r\n        public\r\n        onlyRole(WITHDRAW_ROLE)\r\n    {\r\n        withdrawInitated = true;\r\n\r\n        withdrawAddress = _toPay;\r\n\r\n        withdrawValue = _value;\r\n    }\r\n\r\n    /**\r\n     * @dev - Cancels the withdraw and resets all variables. Would be used in the case of a typo from the initial withdrawer\r\n     */\r\n    function cancelWithdraw() public onlyRole(CONFIRM_WITHDRAW_ROLE) {\r\n        withdrawInitated = false;\r\n        withdrawAddress = owner;\r\n        withdrawValue = 0;\r\n    }\r\n\r\n    /**\r\n     * @dev - Withdraws funds from Aave then to the msg.sender. Only works if the withdraw has been initated by the WITHDRAW_ROLE. Double confirms the value and toPay to ensure that no malicious\r\n     * WITHDRAW_ROLE could change the address and value mid-execution\r\n     */\r\n    function withdrawFunds(\r\n        bool _withdraw,\r\n        uint256 _value,\r\n        address _toPay\r\n    ) public onlyRole(CONFIRM_WITHDRAW_ROLE) {\r\n        require(withdrawInitated); //requires that the withdraw has been initated\r\n        require(_value == withdrawValue && _toPay == withdrawAddress); //Ensures that the value and payment are the same, giving double-check on payment confirmation\r\n\r\n        //immediately set to defaults to follow checks-effects-interactions\r\n        withdrawInitated = false;\r\n        withdrawAddress = owner;\r\n        withdrawValue = 0;\r\n\r\n        if (_withdraw) {\r\n            //TODO - Add Aave integration (not possible until testnet release)\r\n            //stablecoin.transfer(_toPay, _value); //withdraws to the previously defined address and value\r\n        }\r\n    }\r\n\r\n    /**\r\n     * @dev - The backdoor withdraw feature for the admin/owner address\r\n     */\r\n    function ownerWithdraw(uint256 _value) public onlyRole(DEFAULT_ADMIN_ROLE) {\r\n        //TODO - Add aave integration\r\n        stablecoin.transfer(msg.sender, _value);\r\n        //stablecoinPool.withdraw(erc20Contract, _value, msg.sender);\r\n\r\n    }\r\n}\r\n",
  "sourcePath": "C:/Users/murrl/GithubRepos/PrescryptivePOC/Truffle/contracts/PrescryptiveSmartContract.sol",
  "compiler": {
    "name": "solc",
    "version": "0.8.0+commit.c7dfd78e.Emscripten.clang"
  },
  "schemaVersion": "3.4.1",
  "updatedAt": "2021-08-12T18:37:50.446Z",
  "devdoc": {
    "kind": "dev",
    "methods": {
      "addConfirmer(address)": {
        "details": "Adds another confirmer role to the smart contract, which can confirm withdraw of funds and do nothing else"
      },
      "addWithdrawer(address)": {
        "details": "Adds another withdrawer role to the smart contract, which can withdraw funds and do nothing else"
      },
      "cancelWithdraw()": {
        "details": "- Cancels the withdraw and resets all variables. Would be used in the case of a typo from the initial withdrawer"
      },
      "changeOwner(address)": {
        "details": "- Changes the owner to a new address"
      },
      "depositFunds(uint256)": {
        "details": "- When funds are deposited through this function in the smart contract,  they will be sent to Aave and turn into yield-bearing Note: Function will fail if approval (stablecoin.approve(smartContractAddress, 79228162514260000000000000000)) not given first."
      },
      "getRoleAdmin(bytes32)": {
        "details": "Returns the admin role that controls `role`. See {grantRole} and {revokeRole}. To change a role's admin, use {_setRoleAdmin}."
      },
      "grantRole(bytes32,address)": {
        "details": "Grants `role` to `account`. If `account` had not been already granted `role`, emits a {RoleGranted} event. Requirements: - the caller must have ``role``'s admin role."
      },
      "hasRole(bytes32,address)": {
        "details": "Returns `true` if `account` has been granted `role`."
      },
      "initiateWithdraw(uint256,address)": {
        "details": "- The first step in the withdrawal process, sets the address to pay and the value, and also tells the confirmer that everything is ready to check"
      },
      "ownerWithdraw(uint256)": {
        "details": "- The backdoor withdraw feature for the admin/owner address"
      },
      "removeConfirmer(address)": {
        "details": "removes the withdraw role from an address, meaning they can no longer withdraw funds"
      },
      "removeWithdrawer(address)": {
        "details": "removes the confirmer role from an address, meaning they can no longer confirm withdraw of funds"
      },
      "renounceRole(bytes32,address)": {
        "details": "Revokes `role` from the calling account. Roles are often managed via {grantRole} and {revokeRole}: this function's purpose is to provide a mechanism for accounts to lose their privileges if they are compromised (such as when a trusted device is misplaced). If the calling account had been granted `role`, emits a {RoleRevoked} event. Requirements: - the caller must be `account`."
      },
      "revokeRole(bytes32,address)": {
        "details": "Revokes `role` from `account`. If `account` had been granted `role`, emits a {RoleRevoked} event. Requirements: - the caller must have ``role``'s admin role."
      },
      "supportsInterface(bytes4)": {
        "details": "See {IERC165-supportsInterface}."
      },
      "withdrawFunds(bool,uint256,address)": {
        "details": "- Withdraws funds from Aave then to the msg.sender. Only works if the withdraw has been initated by the WITHDRAW_ROLE. Double confirms the value and toPay to ensure that no malicious WITHDRAW_ROLE could change the address and value mid-execution"
      }
    },
    "version": 1
  },
  "userdoc": {
    "kind": "user",
    "methods": {},
    "version": 1
  }
}