{
  "contractName": "PrescryptiveSmartContract",
  "abi": [
    {
      "inputs": [
        {
          "internalType": "address",
          "name": "_erc20",
          "type": "address"
        }
      ],
      "stateMutability": "nonpayable",
      "type": "constructor"
    },
    {
      "anonymous": false,
      "inputs": [
        {
          "indexed": true,
          "internalType": "bytes32",
          "name": "role",
          "type": "bytes32"
        },
        {
          "indexed": true,
          "internalType": "bytes32",
          "name": "previousAdminRole",
          "type": "bytes32"
        },
        {
          "indexed": true,
          "internalType": "bytes32",
          "name": "newAdminRole",
          "type": "bytes32"
        }
      ],
      "name": "RoleAdminChanged",
      "type": "event"
    },
    {
      "anonymous": false,
      "inputs": [
        {
          "indexed": true,
          "internalType": "bytes32",
          "name": "role",
          "type": "bytes32"
        },
        {
          "indexed": true,
          "internalType": "address",
          "name": "account",
          "type": "address"
        },
        {
          "indexed": true,
          "internalType": "address",
          "name": "sender",
          "type": "address"
        }
      ],
      "name": "RoleGranted",
      "type": "event"
    },
    {
      "anonymous": false,
      "inputs": [
        {
          "indexed": true,
          "internalType": "bytes32",
          "name": "role",
          "type": "bytes32"
        },
        {
          "indexed": true,
          "internalType": "address",
          "name": "account",
          "type": "address"
        },
        {
          "indexed": true,
          "internalType": "address",
          "name": "sender",
          "type": "address"
        }
      ],
      "name": "RoleRevoked",
      "type": "event"
    },
    {
      "inputs": [],
      "name": "DEFAULT_ADMIN_ROLE",
      "outputs": [
        {
          "internalType": "bytes32",
          "name": "",
          "type": "bytes32"
        }
      ],
      "stateMutability": "view",
      "type": "function",
      "constant": true
    },
    {
      "inputs": [],
      "name": "WITHDRAW_ROLE",
      "outputs": [
        {
          "internalType": "bytes32",
          "name": "",
          "type": "bytes32"
        }
      ],
      "stateMutability": "view",
      "type": "function",
      "constant": true
    },
    {
      "inputs": [
        {
          "internalType": "bytes32",
          "name": "role",
          "type": "bytes32"
        }
      ],
      "name": "getRoleAdmin",
      "outputs": [
        {
          "internalType": "bytes32",
          "name": "",
          "type": "bytes32"
        }
      ],
      "stateMutability": "view",
      "type": "function",
      "constant": true
    },
    {
      "inputs": [
        {
          "internalType": "bytes32",
          "name": "role",
          "type": "bytes32"
        },
        {
          "internalType": "address",
          "name": "account",
          "type": "address"
        }
      ],
      "name": "grantRole",
      "outputs": [],
      "stateMutability": "nonpayable",
      "type": "function"
    },
    {
      "inputs": [
        {
          "internalType": "bytes32",
          "name": "role",
          "type": "bytes32"
        },
        {
          "internalType": "address",
          "name": "account",
          "type": "address"
        }
      ],
      "name": "hasRole",
      "outputs": [
        {
          "internalType": "bool",
          "name": "",
          "type": "bool"
        }
      ],
      "stateMutability": "view",
      "type": "function",
      "constant": true
    },
    {
      "inputs": [
        {
          "internalType": "bytes32",
          "name": "role",
          "type": "bytes32"
        },
        {
          "internalType": "address",
          "name": "account",
          "type": "address"
        }
      ],
      "name": "renounceRole",
      "outputs": [],
      "stateMutability": "nonpayable",
      "type": "function"
    },
    {
      "inputs": [
        {
          "internalType": "bytes32",
          "name": "role",
          "type": "bytes32"
        },
        {
          "internalType": "address",
          "name": "account",
          "type": "address"
        }
      ],
      "name": "revokeRole",
      "outputs": [],
      "stateMutability": "nonpayable",
      "type": "function"
    },
    {
      "inputs": [],
      "name": "stablecoin",
      "outputs": [
        {
          "internalType": "contract ERC20",
          "name": "",
          "type": "address"
        }
      ],
      "stateMutability": "view",
      "type": "function",
      "constant": true
    },
    {
      "inputs": [
        {
          "internalType": "bytes4",
          "name": "interfaceId",
          "type": "bytes4"
        }
      ],
      "name": "supportsInterface",
      "outputs": [
        {
          "internalType": "bool",
          "name": "",
          "type": "bool"
        }
      ],
      "stateMutability": "view",
      "type": "function",
      "constant": true
    },
    {
      "inputs": [
        {
          "internalType": "address",
          "name": "_newWithdrawer",
          "type": "address"
        }
      ],
      "name": "addWithdrawer",
      "outputs": [],
      "stateMutability": "nonpayable",
      "type": "function"
    },
    {
      "inputs": [
        {
          "internalType": "address",
          "name": "_withdrawer",
          "type": "address"
        }
      ],
      "name": "removeWithdrawer",
      "outputs": [],
      "stateMutability": "nonpayable",
      "type": "function"
    },
    {
      "inputs": [],
      "name": "approveTokenTransfer",
      "outputs": [],
      "stateMutability": "nonpayable",
      "type": "function"
    },
    {
      "inputs": [
        {
          "internalType": "uint256",
          "name": "_value",
          "type": "uint256"
        }
      ],
      "name": "depositFunds",
      "outputs": [],
      "stateMutability": "nonpayable",
      "type": "function"
    },
    {
      "inputs": [
        {
          "internalType": "uint256",
          "name": "_value",
          "type": "uint256"
        }
      ],
      "name": "withdrawFunds",
      "outputs": [],
      "stateMutability": "nonpayable",
      "type": "function"
    }
  ],
  "bytecode": "0x60806040523480156200001157600080fd5b50604051620018ff380380620018ff8339818101604052810190620000379190620002c5565b620000566000600102336200011a640100000000026401000000009004565b620000917f5d8e12c39142ff96d79d04d15d1ba1269e4fe57bb9d26f43523628b34ba108ec336200011a640100000000026401000000009004565b80600260006101000a81548173ffffffffffffffffffffffffffffffffffffffff021916908373ffffffffffffffffffffffffffffffffffffffff16021790555080600160006101000a81548173ffffffffffffffffffffffffffffffffffffffff021916908373ffffffffffffffffffffffffffffffffffffffff160217905550506200034a565b62000135828262000139640100000000026401000000009004565b5050565b6200015482826200023c640100000000026401000000009004565b6200023857600160008084815260200190815260200160002060000160008373ffffffffffffffffffffffffffffffffffffffff1673ffffffffffffffffffffffffffffffffffffffff16815260200190815260200160002060006101000a81548160ff021916908315150217905550620001dd620002a6640100000000026401000000009004565b73ffffffffffffffffffffffffffffffffffffffff168173ffffffffffffffffffffffffffffffffffffffff16837f2f8788117e7eff1d82e926ec794901d17c78024a50270940304540a733656f0d60405160405180910390a45b5050565b600080600084815260200190815260200160002060000160008373ffffffffffffffffffffffffffffffffffffffff1673ffffffffffffffffffffffffffffffffffffffff16815260200190815260200160002060009054906101000a900460ff16905092915050565b600033905090565b600081519050620002bf8162000330565b92915050565b600060208284031215620002de57620002dd6200032b565b5b6000620002ee84828501620002ae565b91505092915050565b600062000304826200030b565b9050919050565b600073ffffffffffffffffffffffffffffffffffffffff82169050919050565b600080fd5b6200033b81620002f7565b81146200034757600080fd5b50565b6115a5806200035a6000396000f3fe608060405234801561001057600080fd5b5060043610610107576000357c010000000000000000000000000000000000000000000000000000000090048063711bd9eb116100a9578063a217fddf11610083578063a217fddf1461024e578063d547741f1461026c578063e02023a114610288578063e9cbd822146102a657610107565b8063711bd9eb146101f85780638a5fa21c1461021457806391d148541461021e57610107565b80632f2ff15d116100e55780632f2ff15d1461018857806336568abe146101a45780633b76594d146101c057806356788a8c146101dc57610107565b806301ffc9a71461010c578063155dd5ee1461013c578063248a9ca314610158575b600080fd5b61012660048036038101906101219190610e87565b6102c4565b60405161013391906110f4565b60405180910390f35b61015660048036038101906101519190610eb4565b61033e565b005b610172600480360381019061016d9190610e1a565b610440565b60405161017f919061110f565b60405180910390f35b6101a2600480360381019061019d9190610e47565b61045f565b005b6101be60048036038101906101b99190610e47565b610488565b005b6101da60048036038101906101d59190610eb4565b61050b565b005b6101f660048036038101906101f19190610dc0565b6105dc565b005b610212600480360381019061020d9190610dc0565b610620565b005b61021c610664565b005b61023860048036038101906102339190610e47565b61073e565b60405161024591906110f4565b60405180910390f35b6102566107a8565b604051610263919061110f565b60405180910390f35b61028660048036038101906102819190610e47565b6107b0565b005b6102906107d9565b60405161029d919061110f565b60405180910390f35b6102ae6107fd565b6040516102bb919061112a565b60405180910390f35b60007f7965db0b000000000000000000000000000000000000000000000000000000007bffffffffffffffffffffffffffffffffffffffffffffffffffffffff1916827bffffffffffffffffffffffffffffffffffffffffffffffffffffffff19161480610337575061033682610823565b5b9050919050565b7f5d8e12c39142ff96d79d04d15d1ba1269e4fe57bb9d26f43523628b34ba108ec6103708161036b61088d565b610895565b600260009054906101000a900473ffffffffffffffffffffffffffffffffffffffff1673ffffffffffffffffffffffffffffffffffffffff1663a9059cbb33846040518363ffffffff167c01000000000000000000000000000000000000000000000000000000000281526004016103e99291906110cb565b602060405180830381600087803b15801561040357600080fd5b505af1158015610417573d6000803e3d6000fd5b505050506040513d601f19601f8201168201806040525081019061043b9190610ded565b505050565b6000806000838152602001908152602001600020600101549050919050565b61046882610440565b6104798161047461088d565b610895565b6104838383610933565b505050565b61049061088d565b73ffffffffffffffffffffffffffffffffffffffff168173ffffffffffffffffffffffffffffffffffffffff16146104fd576040517f08c379a00000000000000000000000000000000000000000000000000000000081526004016104f490611187565b60405180910390fd5b6105078282610a13565b5050565b600260009054906101000a900473ffffffffffffffffffffffffffffffffffffffff1673ffffffffffffffffffffffffffffffffffffffff166323b872dd3330846040518463ffffffff167c01000000000000000000000000000000000000000000000000000000000281526004016105869392919061106b565b602060405180830381600087803b1580156105a057600080fd5b505af11580156105b4573d6000803e3d6000fd5b505050506040513d601f19601f820116820180604052508101906105d89190610ded565b5050565b60006001026105f2816105ed61088d565b610895565b61061c7f5d8e12c39142ff96d79d04d15d1ba1269e4fe57bb9d26f43523628b34ba108ec8361045f565b5050565b60006001026106368161063161088d565b610895565b6106607f5d8e12c39142ff96d79d04d15d1ba1269e4fe57bb9d26f43523628b34ba108ec836107b0565b5050565b600260009054906101000a900473ffffffffffffffffffffffffffffffffffffffff1673ffffffffffffffffffffffffffffffffffffffff1663095ea7b3306bfffffffffff096fb4da200006040518363ffffffff167c01000000000000000000000000000000000000000000000000000000000281526004016106e99291906110a2565b602060405180830381600087803b15801561070357600080fd5b505af1158015610717573d6000803e3d6000fd5b505050506040513d601f19601f8201168201806040525081019061073b9190610ded565b50565b600080600084815260200190815260200160002060000160008373ffffffffffffffffffffffffffffffffffffffff1673ffffffffffffffffffffffffffffffffffffffff16815260200190815260200160002060009054906101000a900460ff16905092915050565b600060010281565b6107b982610440565b6107ca816107c561088d565b610895565b6107d48383610a13565b505050565b7f5d8e12c39142ff96d79d04d15d1ba1269e4fe57bb9d26f43523628b34ba108ec81565b600260009054906101000a900473ffffffffffffffffffffffffffffffffffffffff1681565b60007f01ffc9a7000000000000000000000000000000000000000000000000000000007bffffffffffffffffffffffffffffffffffffffffffffffffffffffff1916827bffffffffffffffffffffffffffffffffffffffffffffffffffffffff1916149050919050565b600033905090565b61089f828261073e565b61092f576108c48173ffffffffffffffffffffffffffffffffffffffff166014610af4565b6108d383600190046020610af4565b6040516020016108e4929190611031565b6040516020818303038152906040526040517f08c379a00000000000000000000000000000000000000000000000000000000081526004016109269190611145565b60405180910390fd5b5050565b61093d828261073e565b610a0f57600160008084815260200190815260200160002060000160008373ffffffffffffffffffffffffffffffffffffffff1673ffffffffffffffffffffffffffffffffffffffff16815260200190815260200160002060006101000a81548160ff0219169083151502179055506109b461088d565b73ffffffffffffffffffffffffffffffffffffffff168173ffffffffffffffffffffffffffffffffffffffff16837f2f8788117e7eff1d82e926ec794901d17c78024a50270940304540a733656f0d60405160405180910390a45b5050565b610a1d828261073e565b15610af057600080600084815260200190815260200160002060000160008373ffffffffffffffffffffffffffffffffffffffff1673ffffffffffffffffffffffffffffffffffffffff16815260200190815260200160002060006101000a81548160ff021916908315150217905550610a9561088d565b73ffffffffffffffffffffffffffffffffffffffff168173ffffffffffffffffffffffffffffffffffffffff16837ff6391f5c32d9c69d2a47ea670b442974b53935d1edc7fd64eb21e047a839171b60405160405180910390a45b5050565b606060006002836002610b079190611224565b610b1191906111ce565b67ffffffffffffffff811115610b2a57610b296113ed565b5b6040519080825280601f01601f191660200182016040528015610b5c5781602001600182028036833780820191505090505b5090507f300000000000000000000000000000000000000000000000000000000000000081600081518110610b9457610b936113be565b5b60200101907effffffffffffffffffffffffffffffffffffffffffffffffffffffffffffff1916908160001a9053507f780000000000000000000000000000000000000000000000000000000000000081600181518110610bf857610bf76113be565b5b60200101907effffffffffffffffffffffffffffffffffffffffffffffffffffffffffffff1916908160001a90535060006001846002610c389190611224565b610c4291906111ce565b90505b6001811115610d09577f3031323334353637383961626364656600000000000000000000000000000000600f861660108110610c8457610c836113be565b5b1a7f010000000000000000000000000000000000000000000000000000000000000002828281518110610cba57610cb96113be565b5b60200101907effffffffffffffffffffffffffffffffffffffffffffffffffffffffffffff1916908160001a905350600485908060020a8204915050945080610d0290611365565b9050610c45565b5060008414610d4d576040517f08c379a0000000000000000000000000000000000000000000000000000000008152600401610d4490611167565b60405180910390fd5b8091505092915050565b600081359050610d66816114fc565b92915050565b600081519050610d7b81611513565b92915050565b600081359050610d908161152a565b92915050565b600081359050610da581611541565b92915050565b600081359050610dba81611558565b92915050565b600060208284031215610dd657610dd561141c565b5b6000610de484828501610d57565b91505092915050565b600060208284031215610e0357610e0261141c565b5b6000610e1184828501610d6c565b91505092915050565b600060208284031215610e3057610e2f61141c565b5b6000610e3e84828501610d81565b91505092915050565b60008060408385031215610e5e57610e5d61141c565b5b6000610e6c85828601610d81565b9250506020610e7d85828601610d57565b9150509250929050565b600060208284031215610e9d57610e9c61141c565b5b6000610eab84828501610d96565b91505092915050565b600060208284031215610eca57610ec961141c565b5b6000610ed884828501610dab565b91505092915050565b610eea8161127e565b82525050565b610ef981611290565b82525050565b610f088161129c565b82525050565b610f17816112fc565b82525050565b610f2681611320565b82525050565b6000610f37826111a7565b610f4181856111b2565b9350610f51818560208601611332565b610f5a81611421565b840191505092915050565b6000610f70826111a7565b610f7a81856111c3565b9350610f8a818560208601611332565b80840191505092915050565b6000610fa36020836111b2565b9150610fae82611432565b602082019050919050565b6000610fc66017836111c3565b9150610fd18261145b565b601782019050919050565b6000610fe96011836111c3565b9150610ff482611484565b601182019050919050565b600061100c602f836111b2565b9150611017826114ad565b604082019050919050565b61102b816112f2565b82525050565b600061103c82610fb9565b91506110488285610f65565b915061105382610fdc565b915061105f8284610f65565b91508190509392505050565b60006060820190506110806000830186610ee1565b61108d6020830185610ee1565b61109a6040830184611022565b949350505050565b60006040820190506110b76000830185610ee1565b6110c46020830184610f1d565b9392505050565b60006040820190506110e06000830185610ee1565b6110ed6020830184611022565b9392505050565b60006020820190506111096000830184610ef0565b92915050565b60006020820190506111246000830184610eff565b92915050565b600060208201905061113f6000830184610f0e565b92915050565b6000602082019050818103600083015261115f8184610f2c565b905092915050565b6000602082019050818103600083015261118081610f96565b9050919050565b600060208201905081810360008301526111a081610fff565b9050919050565b600081519050919050565b600082825260208201905092915050565b600081905092915050565b60006111d9826112f2565b91506111e4836112f2565b9250827fffffffffffffffffffffffffffffffffffffffffffffffffffffffffffffffff038211156112195761121861138f565b5b828201905092915050565b600061122f826112f2565b915061123a836112f2565b9250817fffffffffffffffffffffffffffffffffffffffffffffffffffffffffffffffff04831182151516156112735761127261138f565b5b828202905092915050565b6000611289826112d2565b9050919050565b60008115159050919050565b6000819050919050565b60007fffffffff0000000000000000000000000000000000000000000000000000000082169050919050565b600073ffffffffffffffffffffffffffffffffffffffff82169050919050565b6000819050919050565b60006113078261130e565b9050919050565b6000611319826112d2565b9050919050565b600061132b826112f2565b9050919050565b60005b83811015611350578082015181840152602081019050611335565b8381111561135f576000848401525b50505050565b6000611370826112f2565b915060008214156113845761138361138f565b5b600182039050919050565b7f4e487b7100000000000000000000000000000000000000000000000000000000600052601160045260246000fd5b7f4e487b7100000000000000000000000000000000000000000000000000000000600052603260045260246000fd5b7f4e487b7100000000000000000000000000000000000000000000000000000000600052604160045260246000fd5b600080fd5b6000601f19601f8301169050919050565b7f537472696e67733a20686578206c656e67746820696e73756666696369656e74600082015250565b7f416363657373436f6e74726f6c3a206163636f756e7420000000000000000000600082015250565b7f206973206d697373696e6720726f6c6520000000000000000000000000000000600082015250565b7f416363657373436f6e74726f6c3a2063616e206f6e6c792072656e6f756e636560008201527f20726f6c657320666f722073656c660000000000000000000000000000000000602082015250565b6115058161127e565b811461151057600080fd5b50565b61151c81611290565b811461152757600080fd5b50565b6115338161129c565b811461153e57600080fd5b50565b61154a816112a6565b811461155557600080fd5b50565b611561816112f2565b811461156c57600080fd5b5056fea264697066735822122068b1343aeac66acfae9acbdfda7d632e3018de9aeada722877c0cb3ea53b8bde64736f6c63430008060033",
  "immutableReferences": {},
  "source": "// SPDX-License-Identifier: UNLICENSED\r\npragma solidity 0.8.6;\r\nimport '../../node_modules/@openzeppelin/contracts/access/AccessControl.sol'; //allows for different roles to be created\r\nimport '../../node_modules/@openzeppelin/contracts/token/ERC20/ERC20.sol'; //the ERC20 interface, so that we can transfer tokens to and from smart contract\r\ncontract PrescryptiveSmartContract is AccessControl {\r\n\r\n    //Role used for adding a withdrawer\r\n    bytes32 public constant WITHDRAW_ROLE = keccak256(\"WITHDRAW_ROLE\");\r\n\r\n    address erc20Contract; //the contract for the token/stablecoin\r\n\r\n    ERC20 public stablecoin;\r\n\r\n    constructor(address _erc20) {\r\n        //make the sender both the admin and have withdraw rights\r\n        _setupRole(DEFAULT_ADMIN_ROLE, msg.sender);\r\n        _setupRole(WITHDRAW_ROLE, msg.sender);\r\n\r\n        //add the interaction interface with the token\r\n        stablecoin = ERC20(_erc20);\r\n        erc20Contract = _erc20;\r\n\r\n    }\r\n\r\n    //depending on setup of the smart contract, the withdraw role may be unnecessary, \r\n    //if there is only one entity who should have access\r\n\r\n    //TODO - determine if onlyRole is required, due to the modifier already existing within the grant/revoke function\r\n    /**\r\n    * @dev Adds another withdrawer role to the smart contract, which can withdraw funds and do nothing else\r\n     */\r\n    function addWithdrawer(address _newWithdrawer) public onlyRole(DEFAULT_ADMIN_ROLE) {\r\n        grantRole(WITHDRAW_ROLE, _newWithdrawer);\r\n    }\r\n\r\n    /**\r\n     * @dev removes the withdraw role from an address, meaning they can no longer withdraw funds\r\n     */\r\n    function removeWithdrawer(address _withdrawer) public onlyRole(DEFAULT_ADMIN_ROLE) {\r\n        revokeRole(WITHDRAW_ROLE, _withdrawer);\r\n    }\r\n\r\n    /**\r\n     * @dev Approves the token transferring from the caller to the smart contract. First step in a deposit.\r\n     * Should only be done once per depositer, otherwise it would be redundant.\r\n     */\r\n    function approveTokenTransfer() external {\r\n        stablecoin.approve(address(this), 79228162514260000000000000000);\r\n    }\r\n\r\n\r\n    /**\r\n     * @dev - When funds are deposited through this function in the smart contract, \r\n        they will be sent to Aave and turn into yield-bearing\r\n        Note: Function will fail if approval not given first.\r\n     */\r\n    function depositFunds(uint256 _value) public {\r\n        //Transfers token from caller to contract, then takes the token and converts it to interest-bearing via Aave\r\n        stablecoin.transferFrom(msg.sender, address(this), _value);\r\n\r\n        //TODO - Add Aave integration (not possible until testnet release)\r\n    }\r\n\r\n    /**\r\n     * @dev - Withdraws funds from Aave then to the msg.sender \r\n     */\r\n    function withdrawFunds(uint256 _value) public onlyRole(WITHDRAW_ROLE) {\r\n        stablecoin.transfer(msg.sender, _value);\r\n        //todo - need emit here?\r\n    }\r\n\r\n\r\n\r\n\r\n}\r\n\r\n",
  "sourcePath": "C:/Users/murrl/GithubRepos/PrescryptivePOC/Truffle/contracts/PrescryptiveSmartContract.sol",
  "compiler": {
    "name": "solc",
    "version": "0.8.6+commit.11564f7e.Emscripten.clang"
  },
  "schemaVersion": "3.4.1",
  "updatedAt": "2021-08-05T14:48:39.089Z",
  "networkType": "ethereum",
  "devdoc": {
    "kind": "dev",
    "methods": {
      "addWithdrawer(address)": {
        "details": "Adds another withdrawer role to the smart contract, which can withdraw funds and do nothing else"
      },
      "approveTokenTransfer()": {
        "details": "Approves the token transferring from the caller to the smart contract. First step in a deposit. Should only be done once per depositer, otherwise it would be redundant."
      },
      "depositFunds(uint256)": {
        "details": "- When funds are deposited through this function in the smart contract,  they will be sent to Aave and turn into yield-bearing Note: Function will fail if approval not given first."
      },
      "getRoleAdmin(bytes32)": {
        "details": "Returns the admin role that controls `role`. See {grantRole} and {revokeRole}. To change a role's admin, use {_setRoleAdmin}."
      },
      "grantRole(bytes32,address)": {
        "details": "Grants `role` to `account`. If `account` had not been already granted `role`, emits a {RoleGranted} event. Requirements: - the caller must have ``role``'s admin role."
      },
      "hasRole(bytes32,address)": {
        "details": "Returns `true` if `account` has been granted `role`."
      },
      "removeWithdrawer(address)": {
        "details": "removes the withdraw role from an address, meaning they can no longer withdraw funds"
      },
      "renounceRole(bytes32,address)": {
        "details": "Revokes `role` from the calling account. Roles are often managed via {grantRole} and {revokeRole}: this function's purpose is to provide a mechanism for accounts to lose their privileges if they are compromised (such as when a trusted device is misplaced). If the calling account had been granted `role`, emits a {RoleRevoked} event. Requirements: - the caller must be `account`."
      },
      "revokeRole(bytes32,address)": {
        "details": "Revokes `role` from `account`. If `account` had been granted `role`, emits a {RoleRevoked} event. Requirements: - the caller must have ``role``'s admin role."
      },
      "supportsInterface(bytes4)": {
        "details": "See {IERC165-supportsInterface}."
      },
      "withdrawFunds(uint256)": {
        "details": "- Withdraws funds from Aave then to the msg.sender "
      }
    },
    "version": 1
  },
  "userdoc": {
    "kind": "user",
    "methods": {},
    "version": 1
  }
}